{
  "contractName": "UIntSetLib",
  "abi": [
    {
      "constant": false,
      "inputs": [
        {
          "name": "self",
          "type": "UIntSetLib.UIntSet storage"
        },
        {
          "name": "old",
          "type": "uint256"
        },
        {
          "name": "nu",
          "type": "uint256"
        }
      ],
      "name": "replace",
      "outputs": [
        {
          "name": "",
          "type": "bool"
        }
      ],
      "payable": false,
      "type": "function"
    },
    {
      "constant": false,
      "inputs": [
        {
          "name": "self",
          "type": "UIntSetLib.UIntSet storage"
        },
        {
          "name": "value",
          "type": "uint256"
        }
      ],
      "name": "add",
      "outputs": [
        {
          "name": "",
          "type": "bool"
        }
      ],
      "payable": false,
      "type": "function"
    },
    {
      "constant": true,
      "inputs": [
        {
          "name": "self",
          "type": "UIntSetLib.UIntSet storage"
        },
        {
          "name": "value",
          "type": "uint256"
        }
      ],
      "name": "indexOf",
      "outputs": [
        {
          "name": "",
          "type": "uint256"
        }
      ],
      "payable": false,
      "type": "function"
    },
    {
      "constant": false,
      "inputs": [
        {
          "name": "self",
          "type": "UIntSetLib.UIntSet storage"
        },
        {
          "name": "value",
          "type": "uint256"
        }
      ],
      "name": "remove",
      "outputs": [
        {
          "name": "",
          "type": "bool"
        }
      ],
      "payable": false,
      "type": "function"
    },
    {
      "constant": true,
      "inputs": [
        {
          "name": "self",
          "type": "UIntSetLib.UIntSet storage"
        },
        {
          "name": "value",
          "type": "uint256"
        }
      ],
      "name": "contains",
      "outputs": [
        {
          "name": "",
          "type": "bool"
        }
      ],
      "payable": false,
      "type": "function"
    },
    {
      "constant": true,
      "inputs": [
        {
          "name": "self",
          "type": "UIntSetLib.UIntSet storage"
        }
      ],
      "name": "size",
      "outputs": [
        {
          "name": "",
          "type": "uint256"
        }
      ],
      "payable": false,
      "type": "function"
    },
    {
      "constant": true,
      "inputs": [
        {
          "name": "self",
          "type": "UIntSetLib.UIntSet storage"
        },
        {
          "name": "index",
          "type": "uint256"
        }
      ],
      "name": "get",
      "outputs": [
        {
          "name": "",
          "type": "uint256"
        }
      ],
      "payable": false,
      "type": "function"
    },
    {
      "constant": true,
      "inputs": [
        {
          "name": "self",
          "type": "UIntSetLib.UIntSet storage"
        }
      ],
      "name": "last",
      "outputs": [
        {
          "name": "",
          "type": "uint256"
        }
      ],
      "payable": false,
      "type": "function"
    },
    {
      "constant": false,
      "inputs": [
        {
          "name": "self",
          "type": "UIntSetLib.UIntSet storage"
        },
        {
          "name": "index",
          "type": "uint256"
        }
      ],
      "name": "pop",
      "outputs": [
        {
          "name": "",
          "type": "uint256"
        }
      ],
      "payable": false,
      "type": "function"
    },
    {
      "constant": true,
      "inputs": [
        {
          "name": "self",
          "type": "UIntSetLib.UIntSet storage"
        }
      ],
      "name": "first",
      "outputs": [
        {
          "name": "",
          "type": "uint256"
        }
      ],
      "payable": false,
      "type": "function"
    },
    {
      "constant": false,
      "inputs": [
        {
          "name": "self",
          "type": "UIntSetLib.UIntSet storage"
        },
        {
          "name": "index",
          "type": "uint256"
        },
        {
          "name": "value",
          "type": "uint256"
        }
      ],
      "name": "set",
      "outputs": [
        {
          "name": "",
          "type": "bool"
        }
      ],
      "payable": false,
      "type": "function"
    }
  ],
  "bytecode": "0x6060604052341561000f57600080fd5b5b6105e28061001f6000396000f300606060405236156100ac5763ffffffff7c01000000000000000000000000000000000000000000000000000000006000350416630529a92a81146100b157806348d8aa13146100d657806353b42b59146100f85780636bebc35a146101185780637f562d881461013a578063a69be3d71461015c578063c25ce2c114610179578063cce5114414610199578063d5f94758146101b6578063e1ef7405146101d6578063f9c4ccd8146101f3575b600080fd5b6100c2600435602435604435610218565b604051901515815260200160405180910390f35b6100c2600435602435610240565b604051901515815260200160405180910390f35b6101066004356024356102bd565b60405190815260200160405180910390f35b6100c26004356024356102f9565b604051901515815260200160405180910390f35b6100c2600435602435610341565b604051901515815260200160405180910390f35b61010660043561035c565b60405190815260200160405180910390f35b610106600435602435610364565b60405190815260200160405180910390f35b6101066004356103a2565b60405190815260200160405180910390f35b6101066004356024356103cf565b60405190815260200160405180910390f35b61010660043561048c565b60405190815260200160405180910390f35b6100c26004356024356044356104b3565b604051901515815260200160405180910390f35b600061022484846102f9565b801561023557506102358483610240565b5b90505b9392505050565b600081815260018301602052604081205460ff1615610261575060006102b7565b8254600083815260028501602052604090208190558390600181016102868382610541565b916000526020600020900160005b508390555050600081815260018381016020526040909120805460ff1916821790555b92915050565b600081815260018301602052604081205460ff1615156102e057506000196102b7565b5060008181526002830160205260409020545b92915050565b6000818152600183016020526040812054819060ff16151561031e576000915061033a565b61032884846102bd565b905061033484826103cf565b50600191505b5092915050565b600081815260018301602052604090205460ff165b92915050565b80545b919050565b815460009083908390811061037857600080fd5b845485908590811061038657fe5b906000526020600020900160005b505492505b5b505092915050565b8054600090829015156103b457600080fd5b82546103c590849060001901610364565b91505b5b50919050565b8154600090819081908590859081106103e757600080fd5b6103f18787610364565b875490945060001901861461044357610409876103a2565b60008181526001890160205260409020805460ff19169055925061042e8787856104b3565b50600083815260028801602052604090208690555b8654600019016104538882610541565b506000848152600288016020908152604080832083905560018a019091529020805460ff1916905592935083925b5b5050505092915050565b80546000908290151561049e57600080fd5b6103c5836000610364565b91505b5b50919050565b82546000908490849081106104c757600080fd5b600084815260018701602052604090205460ff16156104e95760009250610537565b855484908790879081106104f957fe5b906000526020600020900160005b50556000848152600187810160209081526040808420805460ff19168417905560028a0190915290912086905592505b5b50509392505050565b81548183558181151161056557600083815260209020610565918101908301610595565b5b505050565b81548183558181151161056557600083815260209020610565918101908301610595565b5b505050565b6105b391905b808211156105af576000815560010161059b565b5090565b905600a165627a7a723058202c420036a756ca597d57923b8e84505e932ac5ca0784989e7b6717ad89d688060029",
  "source": "pragma solidity ^0.4.11;\n\n/// @title Library implementing an array type which allows O(1) lookups on values.\n/// @author Piper Merriam <pipermerriam@gmail.com>, Eric Olszewski <eolszewski@gmail.com>\n/// Adapted from https://github.com/ethpm/ethereum-indexed-enumerable-set-lib/blob/master/contracts/IndexedEnumerableSetLib.sol\nlibrary UIntSetLib {\n\n  struct UIntSet {\n    uint[] values;\n    mapping(uint => bool) exists;\n    mapping(uint => uint) indices;\n  }\n\n  modifier inBounds(UIntSet storage self, uint index) {\n    require(index < self.values.length);\n    _;\n  }\n\n  modifier notEmpty(UIntSet storage self) {\n    require(self.values.length != 0);\n    _;\n  }\n\n  function get(UIntSet storage self, uint index) public constant\n    inBounds(self, index)\n    returns (uint)\n  {\n    return self.values[index];\n  }\n\n  function set(UIntSet storage self, uint index, uint value) public\n    inBounds(self, index)\n    returns (bool)\n  {\n    if (self.exists[value])\n      return false;\n    self.values[index] = value;\n    self.exists[value] = true;\n    self.indices[value] = index;\n    return true;\n  }\n\n  function add(UIntSet storage self, uint value) public\n    returns (bool)\n  {\n    if (self.exists[value])\n      return false;\n    self.indices[value] = self.values.length;\n    self.values.push(value);\n    self.exists[value] = true;\n    return true;\n  }\n\n  function remove(UIntSet storage self, uint value) public\n    returns (bool)\n  {\n    if (!self.exists[value])\n      return false;\n    uint index = indexOf(self, value);\n    pop(self, index);\n    return true;\n  }\n\n  function pop(UIntSet storage self, uint index) public\n    inBounds(self, index)\n    returns (uint)\n\t{\n    uint value = get(self, index);\n\n    if (index != self.values.length - 1) {\n      uint lastValue = last(self);\n      self.exists[lastValue] = false;\n      set(self, index, lastValue);\n      self.indices[lastValue] = index;\n    }\n    self.values.length -= 1;\n\n    delete self.indices[value];\n    delete self.exists[value];\n\n    return value;\n  }\n\n  function replace(UIntSet storage self, uint old, uint nu) public\n    returns (bool)\n  {\n    return remove(self, old) && add(self, nu);\n  }\n\n  function first(UIntSet storage self) public constant\n    notEmpty(self)\n    returns (uint)\n  {\n    return get(self, 0);\n  }\n\n  function last(UIntSet storage self) public constant\n    notEmpty(self)\n    returns (uint)\n  {\n    return get(self, self.values.length - 1);\n  }\n\n  function indexOf(UIntSet storage self, uint value) public constant\n    returns (uint)\n  {\n    if (!self.exists[value])\n      return uint(-1);\n    return self.indices[value];\n  }\n\n  function contains(UIntSet storage self, uint value) public constant\n    returns (bool)\n  {\n    return self.exists[value];\n  }\n\n  function size(UIntSet storage self) public constant\n    returns (uint)\n  {\n    return self.values.length;\n  }\n}\n",
  "sourcePath": "/Users/orie/Code/dapp/contracts/TransmuteFramework/TransmuteFramework/SetLib/UIntSet/UIntSetLib.sol",
  "schemaVersion": "1.0.0",
  "updatedAt": "2017-10-08T20:58:06.803Z"
}