{
  "contractName": "UnsafeEventStoreFactory",
  "abi": [
    {
      "constant": true,
      "inputs": [],
      "name": "creator",
      "outputs": [
        {
          "name": "",
          "type": "address"
        }
      ],
      "payable": false,
      "type": "function"
    },
    {
      "constant": false,
      "inputs": [
        {
          "name": "_eventType",
          "type": "bytes32"
        },
        {
          "name": "_keyType",
          "type": "bytes1"
        },
        {
          "name": "_valueType",
          "type": "bytes1"
        },
        {
          "name": "_key",
          "type": "bytes32"
        },
        {
          "name": "_value",
          "type": "bytes32"
        }
      ],
      "name": "writeEvent",
      "outputs": [
        {
          "name": "",
          "type": "uint256"
        }
      ],
      "payable": false,
      "type": "function"
    },
    {
      "constant": false,
      "inputs": [],
      "name": "kill",
      "outputs": [],
      "payable": false,
      "type": "function"
    },
    {
      "constant": false,
      "inputs": [],
      "name": "createEventStore",
      "outputs": [
        {
          "name": "",
          "type": "address"
        }
      ],
      "payable": false,
      "type": "function"
    },
    {
      "constant": false,
      "inputs": [],
      "name": "eventCount",
      "outputs": [
        {
          "name": "",
          "type": "uint256"
        }
      ],
      "payable": false,
      "type": "function"
    },
    {
      "constant": true,
      "inputs": [],
      "name": "owner",
      "outputs": [
        {
          "name": "",
          "type": "address"
        }
      ],
      "payable": false,
      "type": "function"
    },
    {
      "constant": true,
      "inputs": [],
      "name": "getEventStores",
      "outputs": [
        {
          "name": "",
          "type": "address[]"
        }
      ],
      "payable": false,
      "type": "function"
    },
    {
      "constant": false,
      "inputs": [
        {
          "name": "_address",
          "type": "address"
        }
      ],
      "name": "killEventStore",
      "outputs": [],
      "payable": false,
      "type": "function"
    },
    {
      "constant": true,
      "inputs": [],
      "name": "getEventStoresByCreator",
      "outputs": [
        {
          "name": "",
          "type": "address[]"
        }
      ],
      "payable": false,
      "type": "function"
    },
    {
      "constant": false,
      "inputs": [
        {
          "name": "_eventId",
          "type": "uint256"
        }
      ],
      "name": "readEvent",
      "outputs": [
        {
          "name": "",
          "type": "uint256"
        },
        {
          "name": "",
          "type": "address"
        },
        {
          "name": "",
          "type": "uint256"
        },
        {
          "name": "",
          "type": "bytes32"
        },
        {
          "name": "",
          "type": "bytes1"
        },
        {
          "name": "",
          "type": "bytes1"
        },
        {
          "name": "",
          "type": "bytes32"
        },
        {
          "name": "",
          "type": "bytes32"
        }
      ],
      "payable": false,
      "type": "function"
    },
    {
      "constant": false,
      "inputs": [
        {
          "name": "newOwner",
          "type": "address"
        }
      ],
      "name": "transferOwnership",
      "outputs": [],
      "payable": false,
      "type": "function"
    },
    {
      "inputs": [],
      "payable": true,
      "type": "constructor"
    },
    {
      "payable": true,
      "type": "fallback"
    },
    {
      "anonymous": false,
      "inputs": [
        {
          "indexed": false,
          "name": "Id",
          "type": "uint256"
        },
        {
          "indexed": false,
          "name": "TxOrigin",
          "type": "address"
        },
        {
          "indexed": false,
          "name": "Created",
          "type": "uint256"
        },
        {
          "indexed": false,
          "name": "EventType",
          "type": "bytes32"
        },
        {
          "indexed": false,
          "name": "KeyType",
          "type": "bytes1"
        },
        {
          "indexed": false,
          "name": "ValueType",
          "type": "bytes1"
        },
        {
          "indexed": false,
          "name": "Key",
          "type": "bytes32"
        },
        {
          "indexed": false,
          "name": "Value",
          "type": "bytes32"
        }
      ],
      "name": "EsEvent",
      "type": "event"
    }
  ],
  "bytecode": "0x60606040525b5b5b60008054600160a060020a03191633600160a060020a03161790555b60028054600160a060020a03191632600160a060020a03161790555b5b5b6110ca806100506000396000f300606060405236156100935763ffffffff60e060020a60003504166302d05d3f811461009b57806335628b38146100ca57806341c0e1b514610123578063468d427e1461013857806371be2e4a146101675780638da5cb5b1461018c5780638dc668d7146101bb578063ccac2d7514610222578063ce844b5a14610243578063e1ba30a9146102aa578063f2fde38b14610331575b5b600080fd5b005b34156100a657600080fd5b6100ae610352565b604051600160a060020a03909116815260200160405180910390f35b34156100d557600080fd5b6101116004357fff0000000000000000000000000000000000000000000000000000000000000060243581169060443516606435608435610361565b60405190815260200160405180910390f35b341561012e57600080fd5b610099610429565b005b341561014357600080fd5b6100ae610439565b604051600160a060020a03909116815260200160405180910390f35b341561017257600080fd5b610111610619565b60405190815260200160405180910390f35b341561019757600080fd5b6100ae610620565b604051600160a060020a03909116815260200160405180910390f35b34156101c657600080fd5b6101ce61062f565b60405160208082528190810183818151815260200191508051906020019060200280838360005b8381101561020e5780820151818401525b6020016101f5565b505050509050019250505060405180910390f35b341561022d57600080fd5b610099600160a060020a0360043516610697565b005b341561024e57600080fd5b6101ce610a28565b60405160208082528190810183818151815260200191508051906020019060200280838360005b8381101561020e5780820151818401525b6020016101f5565b505050509050019250505060405180910390f35b34156102b557600080fd5b6102c0600435610ab7565b604051978852600160a060020a03909616602088015260408088019590955260608701939093527fff0000000000000000000000000000000000000000000000000000000000000091821660808701521660a085015260c084015260e0830191909152610100909101905180910390f35b341561033c57600080fd5b610099600160a060020a0360043516610b85565b005b600254600160a060020a031681565b600073__EventStoreLib_________________________633bb642036001888888888860006040516020015260405160e060020a63ffffffff8916028152600481019690965260248601949094527fff00000000000000000000000000000000000000000000000000000000000000928316604486015291166064840152608483015260a482015260c40160206040518083038186803b151561040357600080fd5b6102c65a03f4151561041457600080fd5b50505060405180519150505b95945050505050565b600054600160a060020a0316ff5b565b600080610444610bda565b604051809103906000f080151561045a57600080fd5b905073__AddressSetLib_________________________631e40161660048360006040516020015260405160e060020a63ffffffff85160281526004810192909252600160a060020a0316602482015260440160206040518083038186803b15156104c457600080fd5b6102c65a03f415156104d557600080fd5b50505060405180515050600160a060020a03331660009081526003602052604080822073__AddressSetLib_________________________92631e40161692859190516020015260405160e060020a63ffffffff85160281526004810192909252600160a060020a0316602482015260440160206040518083038186803b151561055e57600080fd5b6102c65a03f4151561056f57600080fd5b50505060405180515061061090507f45535f43524541544544000000000000000000000000000000000000000000007f58000000000000000000000000000000000000000000000000000000000000007f41000000000000000000000000000000000000000000000000000000000000007f6164647265737300000000000000000000000000000000000000000000000000600160a060020a038616610361565b508091505b5090565b6001545b90565b600054600160a060020a031681565b610637610bea565b6004805460208082020160405190810160405280929190818152602001828054801561068c57602002820191906000526020600020905b8154600160a060020a0316815260019091019060200180831161066e575b505050505090505b90565b60008173__AddressSetLib_________________________63dc02e70d600483856040516020015260405160e060020a63ffffffff85160281526004810192909252600160a060020a0316602482015260440160206040518083038186803b151561070157600080fd5b6102c65a03f4151561071257600080fd5b50505060405180519050151561072757600080fd5b33600160a060020a031630600160a060020a0316638da5cb5b6000604051602001526040518163ffffffff1660e060020a028152600401602060405180830381600087803b151561077757600080fd5b6102c65a03f1151561078857600080fd5b50505060405180519050600160a060020a03161415156107a757600080fd5b8291506003600083600160a060020a0316638da5cb5b6000604051602001526040518163ffffffff1660e060020a028152600401602060405180830381600087803b15156107f457600080fd5b6102c65a03f1151561080557600080fd5b50505060405180519050600160a060020a0316600160a060020a0316815260200190815260200160002073__AddressSetLib_________________________63499b67d990918560006040516020015260405160e060020a63ffffffff85160281526004810192909252600160a060020a0316602482015260440160206040518083038186803b151561089757600080fd5b6102c65a03f415156108a857600080fd5b50505060405180515073__AddressSetLib_________________________905063499b67d960048560006040516020015260405160e060020a63ffffffff85160281526004810192909252600160a060020a0316602482015260440160206040518083038186803b151561091b57600080fd5b6102c65a03f4151561092c57600080fd5b50505060405180515050600160a060020a0382166341c0e1b56040518163ffffffff1660e060020a028152600401600060405180830381600087803b151561097357600080fd5b6102c65a03f1151561098457600080fd5b505050610a207f45535f44455354524f59454400000000000000000000000000000000000000007f58000000000000000000000000000000000000000000000000000000000000007f41000000000000000000000000000000000000000000000000000000000000007f616464726573730000000000000000000000000000000000000000000000000087600160a060020a0316600102610361565b505b5b505050565b610a30610bea565b6003600033600160a060020a0316600160a060020a0316815260200190815260200160002060000180548060200260200160405190810160405280929190818152602001828054801561068c57602002820191906000526020600020905b8154600160a060020a0316815260019091019060200180831161066e575b505050505090505b90565b60008060008060008060008073__EventStoreLib_________________________63a057fd5e60018b6000604051610100015260405160e060020a63ffffffff8516028152600481019290925260248201526044016101006040518083038186803b1515610b2457600080fd5b6102c65a03f41515610b3557600080fd5b50505060405180519060200180519060200180519060200180519060200180519060200180519060200180519060200180519050975097509750975097509750975097505b919395975091939597565b60005433600160a060020a0390811691161415610bd457600160a060020a03811615610bd4576000805473ffffffffffffffffffffffffffffffffffffffff1916600160a060020a0383161790555b5b5b5b50565b6040516104a280610bfd83390190565b60206040519081016040526000815290560060606040525b5b60008054600160a060020a03191633600160a060020a03161790555b60028054600160a060020a03191632600160a060020a03161790555b5b6104548061004e6000396000f300606060405236156100675763ffffffff60e060020a60003504166302d05d3f811461006f57806335628b381461009e57806341c0e1b5146100f757806371be2e4a1461010c5780638da5cb5b14610131578063e1ba30a914610160578063f2fde38b146101e7575b5b600080fd5b005b341561007a57600080fd5b610082610208565b604051600160a060020a03909116815260200160405180910390f35b34156100a957600080fd5b6100e56004357fff0000000000000000000000000000000000000000000000000000000000000060243581169060443516606435608435610217565b60405190815260200160405180910390f35b341561010257600080fd5b61006d6102df565b005b341561011757600080fd5b6100e56102ef565b60405190815260200160405180910390f35b341561013c57600080fd5b6100826102f6565b604051600160a060020a03909116815260200160405180910390f35b341561016b57600080fd5b610176600435610305565b604051978852600160a060020a03909616602088015260408088019590955260608701939093527fff0000000000000000000000000000000000000000000000000000000000000091821660808701521660a085015260c084015260e0830191909152610100909101905180910390f35b34156101f257600080fd5b61006d600160a060020a03600435166103d3565b005b600254600160a060020a031681565b600073__EventStoreLib_________________________633bb642036001888888888860006040516020015260405160e060020a63ffffffff8916028152600481019690965260248601949094527fff00000000000000000000000000000000000000000000000000000000000000928316604486015291166064840152608483015260a482015260c40160206040518083038186803b15156102b957600080fd5b6102c65a03f415156102ca57600080fd5b50505060405180519150505b95945050505050565b600054600160a060020a0316ff5b565b6001545b90565b600054600160a060020a031681565b60008060008060008060008073__EventStoreLib_________________________63a057fd5e60018b6000604051610100015260405160e060020a63ffffffff8516028152600481019290925260248201526044016101006040518083038186803b151561037257600080fd5b6102c65a03f4151561038357600080fd5b50505060405180519060200180519060200180519060200180519060200180519060200180519060200180519060200180519050975097509750975097509750975097505b919395975091939597565b60005433600160a060020a039081169116141561042257600160a060020a03811615610422576000805473ffffffffffffffffffffffffffffffffffffffff1916600160a060020a0383161790555b5b5b5b505600a165627a7a723058205506203239cfa0bbff9def68142dfd43198ee9a9b15ce26edd0cb06be512e1d60029a165627a7a723058204ea90f5dee2af0ab740e808327ca662f1dfcee929e1bf70685ccca879c044b0c0029",
  "source": "pragma solidity ^0.4.11;\n\nimport \"./UnsafeEventStore.sol\";\nimport \"../../../SetLib/AddressSet/AddressSetLib.sol\";\n\ncontract UnsafeEventStoreFactory is UnsafeEventStore {\n\n  using AddressSetLib for AddressSetLib.AddressSet;\n\n  mapping (address => AddressSetLib.AddressSet) creatorEventStoreMapping;\n  AddressSetLib.AddressSet EventStoreAddresses;\n\n  // Fallback Function\n  function () payable { throw; }\n\n  // Constructor\n  function UnsafeEventStoreFactory()\n  payable\n  {\n\n  }\n\n  // Modifiers\n  modifier checkExistence(address _EventStoreAddress)\n  {\n    require(EventStoreAddresses.contains(_EventStoreAddress));\n    _;\n  }\n\n  // Helper Functions\n  function getEventStoresByCreator()\n    public constant\n    returns (address[])\n  {\n    return creatorEventStoreMapping[msg.sender].values;\n  }\n\n  function getEventStores()\n    public constant\n    returns (address[])\n  {\n    return EventStoreAddresses.values;\n  }\n\n  // Interface\n\tfunction createEventStore()\n    public\n    returns (address)\n  {\n    // Interact With Other Contracts\n\t\tUnsafeEventStore _newEventStore = new UnsafeEventStore();\n\n    // Update State Dependent On Other Contracts\n    EventStoreAddresses.add(address(_newEventStore));\n    creatorEventStoreMapping[msg.sender].add(address(_newEventStore));\n\n    writeEvent('ES_CREATED', 'X', 'A', 'address', bytes32(address(_newEventStore)));\n\n    return address(_newEventStore);\n\t}\n\n  function killEventStore(address _address)\n    public\n    checkExistence(_address)\n  {\n    // Validate Local State - Only the Factory owner can destroy stores with this method\n    require(this.owner() == msg.sender);\n\n    UnsafeEventStore _eventStore = UnsafeEventStore(_address);\n\n    // Update Local State\n    creatorEventStoreMapping[_eventStore.owner()].remove(_address);\n    EventStoreAddresses.remove(_address);\n\n    _eventStore.kill();\n\n    writeEvent('ES_DESTROYED', 'X', 'A', 'address', bytes32(_address));\n  }\n}\n",
  "sourcePath": "/Users/orie/Code/dapp/contracts/TransmuteFramework/TransmuteFramework/EventStore/Bases/UnsafeEventStore/UnsafeEventStoreFactory.sol",
  "schemaVersion": "1.0.0",
  "updatedAt": "2017-10-08T20:58:06.819Z"
}