{
  "contractName": "AddressSetSpec",
  "abi": [
    {
      "constant": false,
      "inputs": [
        {
          "name": "value",
          "type": "address"
        }
      ],
      "name": "add",
      "outputs": [
        {
          "name": "",
          "type": "bool"
        }
      ],
      "payable": false,
      "type": "function"
    },
    {
      "constant": true,
      "inputs": [],
      "name": "getValues",
      "outputs": [
        {
          "name": "",
          "type": "address[]"
        }
      ],
      "payable": false,
      "type": "function"
    },
    {
      "constant": false,
      "inputs": [
        {
          "name": "value",
          "type": "address"
        }
      ],
      "name": "remove",
      "outputs": [
        {
          "name": "",
          "type": "bool"
        }
      ],
      "payable": false,
      "type": "function"
    },
    {
      "constant": false,
      "inputs": [
        {
          "name": "index",
          "type": "uint256"
        },
        {
          "name": "value",
          "type": "address"
        }
      ],
      "name": "set",
      "outputs": [
        {
          "name": "",
          "type": "bool"
        }
      ],
      "payable": false,
      "type": "function"
    },
    {
      "constant": true,
      "inputs": [],
      "name": "first",
      "outputs": [
        {
          "name": "",
          "type": "address"
        }
      ],
      "payable": false,
      "type": "function"
    },
    {
      "constant": false,
      "inputs": [],
      "name": "kill",
      "outputs": [],
      "payable": false,
      "type": "function"
    },
    {
      "constant": true,
      "inputs": [],
      "name": "last",
      "outputs": [
        {
          "name": "",
          "type": "address"
        }
      ],
      "payable": false,
      "type": "function"
    },
    {
      "constant": true,
      "inputs": [
        {
          "name": "value",
          "type": "address"
        }
      ],
      "name": "contains",
      "outputs": [
        {
          "name": "",
          "type": "bool"
        }
      ],
      "payable": false,
      "type": "function"
    },
    {
      "constant": false,
      "inputs": [
        {
          "name": "index",
          "type": "uint256"
        }
      ],
      "name": "pop",
      "outputs": [
        {
          "name": "",
          "type": "address"
        }
      ],
      "payable": false,
      "type": "function"
    },
    {
      "constant": true,
      "inputs": [],
      "name": "lastRemove",
      "outputs": [
        {
          "name": "",
          "type": "bool"
        }
      ],
      "payable": false,
      "type": "function"
    },
    {
      "constant": true,
      "inputs": [],
      "name": "owner",
      "outputs": [
        {
          "name": "",
          "type": "address"
        }
      ],
      "payable": false,
      "type": "function"
    },
    {
      "constant": true,
      "inputs": [],
      "name": "lastPop",
      "outputs": [
        {
          "name": "",
          "type": "address"
        }
      ],
      "payable": false,
      "type": "function"
    },
    {
      "constant": true,
      "inputs": [],
      "name": "size",
      "outputs": [
        {
          "name": "",
          "type": "uint256"
        }
      ],
      "payable": false,
      "type": "function"
    },
    {
      "constant": true,
      "inputs": [
        {
          "name": "index",
          "type": "uint256"
        }
      ],
      "name": "get",
      "outputs": [
        {
          "name": "",
          "type": "address"
        }
      ],
      "payable": false,
      "type": "function"
    },
    {
      "constant": false,
      "inputs": [
        {
          "name": "newOwner",
          "type": "address"
        }
      ],
      "name": "transferOwnership",
      "outputs": [],
      "payable": false,
      "type": "function"
    },
    {
      "constant": true,
      "inputs": [
        {
          "name": "value",
          "type": "address"
        }
      ],
      "name": "indexOf",
      "outputs": [
        {
          "name": "",
          "type": "uint256"
        }
      ],
      "payable": false,
      "type": "function"
    },
    {
      "constant": true,
      "inputs": [],
      "name": "lastAdd",
      "outputs": [
        {
          "name": "",
          "type": "bool"
        }
      ],
      "payable": false,
      "type": "function"
    },
    {
      "inputs": [],
      "payable": true,
      "type": "constructor"
    },
    {
      "payable": true,
      "type": "fallback"
    }
  ],
  "bytecode": "0x60606040525b5b60008054600160a060020a03191633600160a060020a03161790555b5b5b610b5a806100336000396000f300606060405236156100d55763ffffffff60e060020a6000350416630a3b0a4f81146100d957806319eb4a901461010c57806329092d0e146101735780632f30c6f6146101a65780633df4ddf4146101dc57806341c0e1b51461020b57806347799da8146102205780635dbe47e81461024f5780635dcfb4fa14610282578063866797b3146102b45780638da5cb5b146102db5780638fbcd7751461030a578063949d225d146103395780639507d39a1461035e578063f2fde38b14610390578063fd6aad25146103b1578063fedab70d146103e2575b5b5b005b34156100e457600080fd5b6100f8600160a060020a0360043516610409565b604051901515815260200160405180910390f35b341561011757600080fd5b61011f6104d6565b60405160208082528190810183818151815260200191508051906020019060200280838360005b8381101561015f5780820151818401525b602001610146565b505050509050019250505060405180910390f35b341561017e57600080fd5b6100f8600160a060020a036004351661053e565b604051901515815260200160405180910390f35b34156101b157600080fd5b6100f8600435600160a060020a036024351661060d565b604051901515815260200160405180910390f35b34156101e757600080fd5b6101ef6106a2565b604051600160a060020a03909116815260200160405180910390f35b341561021657600080fd5b6100d561071c565b005b341561022b57600080fd5b6101ef61072c565b604051600160a060020a03909116815260200160405180910390f35b341561025a57600080fd5b6100f8600160a060020a03600435166107a6565b604051901515815260200160405180910390f35b341561028d57600080fd5b6101ef600435610831565b604051600160a060020a03909116815260200160405180910390f35b34156102bf57600080fd5b6100f86108df565b604051901515815260200160405180910390f35b34156102e657600080fd5b6101ef610901565b604051600160a060020a03909116815260200160405180910390f35b341561031557600080fd5b6101ef610910565b604051600160a060020a03909116815260200160405180910390f35b341561034457600080fd5b61034c61091f565b60405190815260200160405180910390f35b341561036957600080fd5b6101ef600435610999565b604051600160a060020a03909116815260200160405180910390f35b341561039b57600080fd5b6100d5600160a060020a0360043516610a1b565b005b34156103bc57600080fd5b61034c600160a060020a0360043516610a70565b60405190815260200160405180910390f35b34156103ed57600080fd5b6100f8610afb565b604051901515815260200160405180910390f35b600073__AddressSetLib_________________________631e401616600184846040516020015260405160e060020a63ffffffff85160281526004810192909252600160a060020a0316602482015260440160206040518083038186803b151561047257600080fd5b6102c65a03f4151561048357600080fd5b50505060405180516004805474ff00000000000000000000000000000000000000001916740100000000000000000000000000000000000000009215158302179081905560ff919004169150505b919050565b6104de610b1c565b6001805460208082020160405190810160405280929190818152602001828054801561053357602002820191906000526020600020905b8154600160a060020a03168152600190910190602001808311610515575b505050505090505b90565b600073__AddressSetLib_________________________63499b67d9600184846040516020015260405160e060020a63ffffffff85160281526004810192909252600160a060020a0316602482015260440160206040518083038186803b15156105a757600080fd5b6102c65a03f415156105b857600080fd5b50505060405180516004805475ff000000000000000000000000000000000000000000191675010000000000000000000000000000000000000000009215158302179081905560ff919004169150505b919050565b600073__AddressSetLib_________________________63840d4d3760018585856040516020015260405160e060020a63ffffffff861602815260048101939093526024830191909152600160a060020a0316604482015260640160206040518083038186803b151561067f57600080fd5b6102c65a03f4151561069057600080fd5b50505060405180519150505b92915050565b600073__AddressSetLib_________________________63eae549676001836040516020015260405160e060020a63ffffffff8416028152600481019190915260240160206040518083038186803b15156106fc57600080fd5b6102c65a03f4151561070d57600080fd5b50505060405180519150505b90565b600054600160a060020a0316ff5b565b600073__AddressSetLib_________________________63ba39f4a56001836040516020015260405160e060020a63ffffffff8416028152600481019190915260240160206040518083038186803b15156106fc57600080fd5b6102c65a03f4151561070d57600080fd5b50505060405180519150505b90565b600073__AddressSetLib_________________________63dc02e70d600184846040516020015260405160e060020a63ffffffff85160281526004810192909252600160a060020a0316602482015260440160206040518083038186803b151561080f57600080fd5b6102c65a03f4151561082057600080fd5b50505060405180519150505b919050565b600073__AddressSetLib_________________________63efc33f1e600184846040516020015260405160e060020a63ffffffff85160281526004810192909252602482015260440160206040518083038186803b151561089157600080fd5b6102c65a03f415156108a257600080fd5b50505060405180516004805473ffffffffffffffffffffffffffffffffffffffff1916600160a060020a039283161790819055169150505b919050565b6004547501000000000000000000000000000000000000000000900460ff1681565b600054600160a060020a031681565b600454600160a060020a031681565b600073__AddressSetLib_________________________631d4cf6c46001836040516020015260405160e060020a63ffffffff8416028152600481019190915260240160206040518083038186803b15156106fc57600080fd5b6102c65a03f4151561070d57600080fd5b50505060405180519150505b90565b600073__AddressSetLib_________________________63da5d2348600184846040516020015260405160e060020a63ffffffff85160281526004810192909252602482015260440160206040518083038186803b151561080f57600080fd5b6102c65a03f4151561082057600080fd5b50505060405180519150505b919050565b60005433600160a060020a0390811691161415610a6a57600160a060020a03811615610a6a576000805473ffffffffffffffffffffffffffffffffffffffff1916600160a060020a0383161790555b5b5b5b50565b600073__AddressSetLib_________________________63af026a90600184846040516020015260405160e060020a63ffffffff85160281526004810192909252600160a060020a0316602482015260440160206040518083038186803b151561080f57600080fd5b6102c65a03f4151561082057600080fd5b50505060405180519150505b919050565b60045474010000000000000000000000000000000000000000900460ff1681565b602060405190810160405260008152905600a165627a7a723058207e0ee9f5654ac800878853ca8c0bcf9494bcae38bc3d841951b0869da78c98a80029",
  "source": "pragma solidity ^0.4.11;\n\nimport './AddressSetLib.sol';\nimport '../../zeppelin/lifecycle/Killable.sol';\n\ncontract AddressSetSpec is Killable {\n  using AddressSetLib for AddressSetLib.AddressSet;\n\n  AddressSetLib.AddressSet testSet;\n\n  address public lastPop;\n  bool public lastAdd;\n  bool public lastRemove;\n\n  function () payable {}\n  function AddressSetSpec() payable {}\n\n  function get(uint index) public constant\n    returns (address)\n  {\n    return testSet.get(index);\n  }\n\n  function getValues() public constant\n    returns (address[])\n  {\n    return testSet.values;\n  }\n\n  function set(uint index, address value) public\n    returns (bool)\n  {\n    return testSet.set(index, value);\n  }\n\n  function add(address value) public\n    returns (bool)\n  {\n    lastAdd = testSet.add(value);\n    return lastAdd;\n  }\n\n  function remove(address value) public\n    returns (bool)\n  {\n    lastRemove = testSet.remove(value);\n    return lastRemove;\n  }\n\n  function pop(uint index) public\n    returns (address)\n  {\n    lastPop = testSet.pop(index);\n    return lastPop;\n  }\n\n  function first() public constant\n    returns (address)\n  {\n    return testSet.first();\n  }\n\n  function last() public constant\n    returns (address)\n  {\n    return testSet.last();\n  }\n\n  function indexOf(address value) public constant\n    returns (uint)\n  {\n    return testSet.indexOf(value);\n  }\n\n  function contains(address value) public constant\n    returns (bool)\n  {\n    return testSet.contains(value);\n  }\n\n  function size() public constant\n    returns (uint)\n  {\n    return testSet.size();\n  }\n}\n",
  "sourcePath": "/Users/orie/Code/dapp/contracts/TransmuteFramework/TransmuteFramework/SetLib/AddressSet/AddressSetSpec.sol",
  "schemaVersion": "1.0.0",
  "updatedAt": "2017-10-08T20:58:06.781Z"
}