{
  "contractName": "Bytes32SetSpec",
  "abi": [
    {
      "constant": true,
      "inputs": [],
      "name": "getValues",
      "outputs": [
        {
          "name": "",
          "type": "bytes32[]"
        }
      ],
      "payable": false,
      "type": "function"
    },
    {
      "constant": true,
      "inputs": [
        {
          "name": "value",
          "type": "bytes32"
        }
      ],
      "name": "contains",
      "outputs": [
        {
          "name": "",
          "type": "bool"
        }
      ],
      "payable": false,
      "type": "function"
    },
    {
      "constant": true,
      "inputs": [],
      "name": "first",
      "outputs": [
        {
          "name": "",
          "type": "bytes32"
        }
      ],
      "payable": false,
      "type": "function"
    },
    {
      "constant": false,
      "inputs": [],
      "name": "kill",
      "outputs": [],
      "payable": false,
      "type": "function"
    },
    {
      "constant": false,
      "inputs": [
        {
          "name": "value",
          "type": "bytes32"
        }
      ],
      "name": "add",
      "outputs": [
        {
          "name": "",
          "type": "bool"
        }
      ],
      "payable": false,
      "type": "function"
    },
    {
      "constant": true,
      "inputs": [],
      "name": "last",
      "outputs": [
        {
          "name": "",
          "type": "bytes32"
        }
      ],
      "payable": false,
      "type": "function"
    },
    {
      "constant": false,
      "inputs": [
        {
          "name": "index",
          "type": "uint256"
        }
      ],
      "name": "pop",
      "outputs": [
        {
          "name": "",
          "type": "bytes32"
        }
      ],
      "payable": false,
      "type": "function"
    },
    {
      "constant": false,
      "inputs": [
        {
          "name": "index",
          "type": "uint256"
        },
        {
          "name": "value",
          "type": "bytes32"
        }
      ],
      "name": "set",
      "outputs": [
        {
          "name": "",
          "type": "bool"
        }
      ],
      "payable": false,
      "type": "function"
    },
    {
      "constant": true,
      "inputs": [
        {
          "name": "value",
          "type": "bytes32"
        }
      ],
      "name": "indexOf",
      "outputs": [
        {
          "name": "",
          "type": "uint256"
        }
      ],
      "payable": false,
      "type": "function"
    },
    {
      "constant": true,
      "inputs": [],
      "name": "lastRemove",
      "outputs": [
        {
          "name": "",
          "type": "bool"
        }
      ],
      "payable": false,
      "type": "function"
    },
    {
      "constant": true,
      "inputs": [],
      "name": "owner",
      "outputs": [
        {
          "name": "",
          "type": "address"
        }
      ],
      "payable": false,
      "type": "function"
    },
    {
      "constant": true,
      "inputs": [],
      "name": "lastPop",
      "outputs": [
        {
          "name": "",
          "type": "bytes32"
        }
      ],
      "payable": false,
      "type": "function"
    },
    {
      "constant": true,
      "inputs": [],
      "name": "size",
      "outputs": [
        {
          "name": "",
          "type": "uint256"
        }
      ],
      "payable": false,
      "type": "function"
    },
    {
      "constant": true,
      "inputs": [
        {
          "name": "index",
          "type": "uint256"
        }
      ],
      "name": "get",
      "outputs": [
        {
          "name": "",
          "type": "bytes32"
        }
      ],
      "payable": false,
      "type": "function"
    },
    {
      "constant": false,
      "inputs": [
        {
          "name": "value",
          "type": "bytes32"
        }
      ],
      "name": "remove",
      "outputs": [
        {
          "name": "",
          "type": "bool"
        }
      ],
      "payable": false,
      "type": "function"
    },
    {
      "constant": false,
      "inputs": [
        {
          "name": "newOwner",
          "type": "address"
        }
      ],
      "name": "transferOwnership",
      "outputs": [],
      "payable": false,
      "type": "function"
    },
    {
      "constant": true,
      "inputs": [],
      "name": "lastAdd",
      "outputs": [
        {
          "name": "",
          "type": "bool"
        }
      ],
      "payable": false,
      "type": "function"
    },
    {
      "inputs": [],
      "payable": true,
      "type": "constructor"
    },
    {
      "payable": true,
      "type": "fallback"
    }
  ],
  "bytecode": "0x60606040525b5b60008054600160a060020a03191633600160a060020a03161790555b5b5b610a15806100336000396000f300606060405236156100d55763ffffffff60e060020a60003504166319eb4a9081146100d95780631d1a696d146101405780633df4ddf41461016a57806341c0e1b51461018f578063446bffba146101a457806347799da8146101ce5780635dcfb4fa146101f357806364c4ef1a1461021b5780636f4ce56a14610248578063866797b3146102705780638da5cb5b146102975780638fbcd775146102c6578063949d225d146102eb5780639507d39a1461031057806395bc267314610338578063f2fde38b14610362578063fedab70d14610383575b5b5b005b34156100e457600080fd5b6100ec6103aa565b60405160208082528190810183818151815260200191508051906020019060200280838360005b8381101561012c5780820151818401525b602001610113565b505050509050019250505060405180910390f35b341561014b57600080fd5b610156600435610409565b604051901515815260200160405180910390f35b341561017557600080fd5b61017d61048b565b60405190815260200160405180910390f35b341561019a57600080fd5b6100d5610505565b005b34156101af57600080fd5b610156600435610515565b604051901515815260200160405180910390f35b34156101d957600080fd5b61017d6105ad565b60405190815260200160405180910390f35b34156101fe57600080fd5b61017d600435610627565b60405190815260200160405180910390f35b341561022657600080fd5b6101566004356024356106ae565b604051901515815260200160405180910390f35b341561025357600080fd5b61017d60043561073a565b60405190815260200160405180910390f35b341561027b57600080fd5b6101566107bc565b604051901515815260200160405180910390f35b34156102a257600080fd5b6102aa6107ca565b604051600160a060020a03909116815260200160405180910390f35b34156102d157600080fd5b61017d6107d9565b60405190815260200160405180910390f35b34156102f657600080fd5b61017d6107df565b60405190815260200160405180910390f35b341561031b57600080fd5b61017d600435610859565b60405190815260200160405180910390f35b341561034357600080fd5b6101566004356108db565b604051901515815260200160405180910390f35b341561036d57600080fd5b6100d5600160a060020a0360043516610979565b005b341561038e57600080fd5b6101566109ce565b604051901515815260200160405180910390f35b6103b26109d7565b600180546020808202016040519081016040528092919081815260200182805480156103fe57602002820191906000526020600020905b815481526001909101906020018083116103e9575b505050505090505b90565b600073__Bytes32SetLib_________________________633fb5a9f3600184846040516020015260405160e060020a63ffffffff85160281526004810192909252602482015260440160206040518083038186803b151561046957600080fd5b6102c65a03f4151561047a57600080fd5b50505060405180519150505b919050565b600073__Bytes32SetLib_________________________63e3cbfc176001836040516020015260405160e060020a63ffffffff8416028152600481019190915260240160206040518083038186803b15156104e557600080fd5b6102c65a03f415156104f657600080fd5b50505060405180519150505b90565b600054600160a060020a0316ff5b565b600073__Bytes32SetLib_________________________6363d4d335600184846040516020015260405160e060020a63ffffffff85160281526004810192909252602482015260440160206040518083038186803b151561057557600080fd5b6102c65a03f4151561058657600080fd5b50505060405180516005805460ff1916911515919091179081905560ff169150505b919050565b600073__Bytes32SetLib_________________________6385d5ac476001836040516020015260405160e060020a63ffffffff8416028152600481019190915260240160206040518083038186803b15156104e557600080fd5b6102c65a03f415156104f657600080fd5b50505060405180519150505b90565b600073__Bytes32SetLib_________________________630bb52bda600184846040516020015260405160e060020a63ffffffff85160281526004810192909252602482015260440160206040518083038186803b151561068757600080fd5b6102c65a03f4151561069857600080fd5b505050604051805160048190559150505b919050565b600073__Bytes32SetLib_________________________6317bf114c60018585856040516020015260405160e060020a63ffffffff861602815260048101939093526024830191909152604482015260640160206040518083038186803b151561071757600080fd5b6102c65a03f4151561072857600080fd5b50505060405180519150505b92915050565b600073__Bytes32SetLib_________________________63aef98a62600184846040516020015260405160e060020a63ffffffff85160281526004810192909252602482015260440160206040518083038186803b151561046957600080fd5b6102c65a03f4151561047a57600080fd5b50505060405180519150505b919050565b600554610100900460ff1681565b600054600160a060020a031681565b60045481565b600073__Bytes32SetLib_________________________636de9408a6001836040516020015260405160e060020a63ffffffff8416028152600481019190915260240160206040518083038186803b15156104e557600080fd5b6102c65a03f415156104f657600080fd5b50505060405180519150505b90565b600073__Bytes32SetLib_________________________639542d9d9600184846040516020015260405160e060020a63ffffffff85160281526004810192909252602482015260440160206040518083038186803b151561046957600080fd5b6102c65a03f4151561047a57600080fd5b50505060405180519150505b919050565b600073__Bytes32SetLib_________________________63121920bc600184846040516020015260405160e060020a63ffffffff85160281526004810192909252602482015260440160206040518083038186803b151561093b57600080fd5b6102c65a03f4151561094c57600080fd5b50505060405180516005805461ff0019166101009215158302179081905560ff919004169150505b919050565b60005433600160a060020a03908116911614156109c857600160a060020a038116156109c8576000805473ffffffffffffffffffffffffffffffffffffffff1916600160a060020a0383161790555b5b5b5b50565b60055460ff1681565b602060405190810160405260008152905600a165627a7a7230582003199d26787624d8d8c63c7f26ddee5d1199de7b06ea0ec132eaf82df686eb7b0029",
  "source": "pragma solidity ^0.4.11;\n\nimport './Bytes32SetLib.sol';\nimport '../../zeppelin/lifecycle/Killable.sol';\n\ncontract Bytes32SetSpec is Killable {\n  using Bytes32SetLib for Bytes32SetLib.Bytes32Set;\n\n  Bytes32SetLib.Bytes32Set testSet;\n\n  bytes32 public lastPop;\n  bool public lastAdd;\n  bool public lastRemove;\n\n  function () payable {}\n  function Bytes32SetSpec() payable {}\n\n  function get(uint index) public constant\n    returns (bytes32)\n  {\n    return testSet.get(index);\n  }\n\n  function getValues() public constant\n    returns (bytes32[])\n  {\n    return testSet.values;\n  }\n\n  function set(uint index, bytes32 value) public\n    returns (bool)\n  {\n    return testSet.set(index, value);\n  }\n\n  function add(bytes32 value) public\n    returns (bool)\n  {\n    lastAdd = testSet.add(value);\n    return lastAdd;\n  }\n\n  function remove(bytes32 value) public\n    returns (bool)\n  {\n    lastRemove = testSet.remove(value);\n    return lastRemove;\n  }\n\n  function pop(uint index) public\n    returns (bytes32)\n  {\n    lastPop = testSet.pop(index);\n    return lastPop;\n  }\n\n  function first() public constant\n    returns (bytes32)\n  {\n    return testSet.first();\n  }\n\n  function last() public constant\n    returns (bytes32)\n  {\n    return testSet.last();\n  }\n\n  function indexOf(bytes32 value) public constant\n    returns (uint)\n  {\n    return testSet.indexOf(value);\n  }\n\n  function contains(bytes32 value) public constant\n    returns (bool)\n  {\n    return testSet.contains(value);\n  }\n\n  function size() public constant\n    returns (uint)\n  {\n    return testSet.size();\n  }\n}\n",
  "sourcePath": "/Users/orie/Code/dapp/contracts/TransmuteFramework/TransmuteFramework/SetLib/Bytes32Set/Bytes32SetSpec.sol",
  "schemaVersion": "1.0.0",
  "updatedAt": "2017-10-08T20:58:06.785Z"
}