{
  "contractName": "Bytes32SetLib",
  "abi": [
    {
      "constant": false,
      "inputs": [
        {
          "name": "self",
          "type": "Bytes32SetLib.Bytes32Set storage"
        },
        {
          "name": "index",
          "type": "uint256"
        }
      ],
      "name": "pop",
      "outputs": [
        {
          "name": "",
          "type": "bytes32"
        }
      ],
      "payable": false,
      "type": "function"
    },
    {
      "constant": false,
      "inputs": [
        {
          "name": "self",
          "type": "Bytes32SetLib.Bytes32Set storage"
        },
        {
          "name": "value",
          "type": "bytes32"
        }
      ],
      "name": "remove",
      "outputs": [
        {
          "name": "",
          "type": "bool"
        }
      ],
      "payable": false,
      "type": "function"
    },
    {
      "constant": false,
      "inputs": [
        {
          "name": "self",
          "type": "Bytes32SetLib.Bytes32Set storage"
        },
        {
          "name": "index",
          "type": "uint256"
        },
        {
          "name": "value",
          "type": "bytes32"
        }
      ],
      "name": "set",
      "outputs": [
        {
          "name": "",
          "type": "bool"
        }
      ],
      "payable": false,
      "type": "function"
    },
    {
      "constant": true,
      "inputs": [
        {
          "name": "self",
          "type": "Bytes32SetLib.Bytes32Set storage"
        },
        {
          "name": "value",
          "type": "bytes32"
        }
      ],
      "name": "contains",
      "outputs": [
        {
          "name": "",
          "type": "bool"
        }
      ],
      "payable": false,
      "type": "function"
    },
    {
      "constant": false,
      "inputs": [
        {
          "name": "self",
          "type": "Bytes32SetLib.Bytes32Set storage"
        },
        {
          "name": "old",
          "type": "bytes32"
        },
        {
          "name": "nu",
          "type": "bytes32"
        }
      ],
      "name": "replace",
      "outputs": [
        {
          "name": "",
          "type": "bool"
        }
      ],
      "payable": false,
      "type": "function"
    },
    {
      "constant": false,
      "inputs": [
        {
          "name": "self",
          "type": "Bytes32SetLib.Bytes32Set storage"
        },
        {
          "name": "value",
          "type": "bytes32"
        }
      ],
      "name": "add",
      "outputs": [
        {
          "name": "",
          "type": "bool"
        }
      ],
      "payable": false,
      "type": "function"
    },
    {
      "constant": true,
      "inputs": [
        {
          "name": "self",
          "type": "Bytes32SetLib.Bytes32Set storage"
        }
      ],
      "name": "size",
      "outputs": [
        {
          "name": "",
          "type": "uint256"
        }
      ],
      "payable": false,
      "type": "function"
    },
    {
      "constant": true,
      "inputs": [
        {
          "name": "self",
          "type": "Bytes32SetLib.Bytes32Set storage"
        }
      ],
      "name": "last",
      "outputs": [
        {
          "name": "",
          "type": "bytes32"
        }
      ],
      "payable": false,
      "type": "function"
    },
    {
      "constant": true,
      "inputs": [
        {
          "name": "self",
          "type": "Bytes32SetLib.Bytes32Set storage"
        },
        {
          "name": "index",
          "type": "uint256"
        }
      ],
      "name": "get",
      "outputs": [
        {
          "name": "",
          "type": "bytes32"
        }
      ],
      "payable": false,
      "type": "function"
    },
    {
      "constant": true,
      "inputs": [
        {
          "name": "self",
          "type": "Bytes32SetLib.Bytes32Set storage"
        },
        {
          "name": "value",
          "type": "bytes32"
        }
      ],
      "name": "indexOf",
      "outputs": [
        {
          "name": "",
          "type": "uint256"
        }
      ],
      "payable": false,
      "type": "function"
    },
    {
      "constant": true,
      "inputs": [
        {
          "name": "self",
          "type": "Bytes32SetLib.Bytes32Set storage"
        }
      ],
      "name": "first",
      "outputs": [
        {
          "name": "",
          "type": "bytes32"
        }
      ],
      "payable": false,
      "type": "function"
    }
  ],
  "bytecode": "0x6060604052341561000f57600080fd5b5b6105e28061001f6000396000f300606060405236156100ac5763ffffffff7c01000000000000000000000000000000000000000000000000000000006000350416630bb52bda81146100b1578063121920bc146100d157806317bf114c146100f35780633fb5a9f314610118578063426841101461013a57806363d4d3351461015f5780636de9408a1461018157806385d5ac471461019e5780639542d9d9146101bb578063aef98a62146101db578063e3cbfc17146101fb575b600080fd5b6100bf600435602435610218565b60405190815260200160405180910390f35b6100df6004356024356102d5565b604051901515815260200160405180910390f35b6100df60043560243560443561031d565b604051901515815260200160405180910390f35b6100df6004356024356103ab565b604051901515815260200160405180910390f35b6100df6004356024356044356103c6565b604051901515815260200160405180910390f35b6100df6004356024356103ee565b604051901515815260200160405180910390f35b6100bf60043561046b565b60405190815260200160405180910390f35b6100bf600435610473565b60405190815260200160405180910390f35b6100bf6004356024356104a0565b60405190815260200160405180910390f35b6100bf6004356024356104de565b60405190815260200160405180910390f35b6100bf60043561051a565b60405190815260200160405180910390f35b81546000908190819085908590811061023057600080fd5b61023a87876104a0565b875490945060001901861461028c5761025287610473565b60008181526001890160205260409020805460ff19169055925061027787878561031d565b50600083815260028801602052604090208690555b86546000190161029c8882610541565b506000848152600288016020908152604080832083905560018a019091529020805460ff1916905592935083925b5b5050505092915050565b6000818152600183016020526040812054819060ff1615156102fa5760009150610316565b61030484846104de565b90506103108482610218565b50600191505b5092915050565b825460009084908490811061033157600080fd5b600084815260018701602052604090205460ff161561035357600092506103a1565b8554849087908790811061036357fe5b906000526020600020900160005b50556000848152600187810160209081526040808420805460ff19168417905560028a0190915290912086905592505b5b50509392505050565b600081815260018301602052604090205460ff165b92915050565b60006103d284846102d5565b80156103e357506103e384836103ee565b5b90505b9392505050565b600081815260018301602052604081205460ff161561040f575060006103c0565b8254600083815260028501602052604090208190558390600181016104348382610541565b916000526020600020900160005b508390555050600081815260018381016020526040909120805460ff1916821790555b92915050565b80545b919050565b80546000908290151561048557600080fd5b8254610496908490600019016104a0565b91505b5b50919050565b81546000908390839081106104b457600080fd5b84548590859081106104c257fe5b906000526020600020900160005b505492505b5b505092915050565b600081815260018301602052604081205460ff16151561050157506000196103c0565b5060008181526002830160205260409020545b92915050565b80546000908290151561052c57600080fd5b6104968360006104a0565b91505b5b50919050565b81548183558181151161056557600083815260209020610565918101908301610595565b5b505050565b81548183558181151161056557600083815260209020610565918101908301610595565b5b505050565b6105b391905b808211156105af576000815560010161059b565b5090565b905600a165627a7a723058207176de3059e4dff9905078a33cbdde2156e1e5af8a6358f303fd83d00704ed710029",
  "source": "pragma solidity ^0.4.11;\n\n/// @title Library implementing an array type which allows O(1) lookups on values.\n/// @author Piper Merriam <pipermerriam@gmail.com>, Eric Olszewski <eolszewski@gmail.com>\n/// Adapted from https://github.com/ethpm/ethereum-indexed-enumerable-set-lib/blob/master/contracts/IndexedEnumerableSetLib.sol\nlibrary Bytes32SetLib {\n\n  struct Bytes32Set {\n    bytes32[] values;\n    mapping(bytes32 => bool) exists;\n    mapping(bytes32 => uint) indices;\n  }\n\n  modifier inBounds(Bytes32Set storage self, uint index) {\n    require(index < self.values.length);\n    _;\n  }\n\n  modifier notEmpty(Bytes32Set storage self) {\n    require(self.values.length != 0);\n    _;\n  }\n\n  function get(Bytes32Set storage self, uint index) public constant\n    inBounds(self, index)\n    returns (bytes32)\n  {\n    return self.values[index];\n  }\n\n  function set(Bytes32Set storage self, uint index, bytes32 value) public\n    inBounds(self, index)\n    returns (bool)\n  {\n    if (self.exists[value])\n      return false;\n    self.values[index] = value;\n    self.exists[value] = true;\n    self.indices[value] = index;\n    return true;\n  }\n\n  function add(Bytes32Set storage self, bytes32 value) public\n    returns (bool)\n  {\n    if (self.exists[value])\n      return false;\n    self.indices[value] = self.values.length;\n    self.values.push(value);\n    self.exists[value] = true;\n    return true;\n  }\n\n  function remove(Bytes32Set storage self, bytes32 value) public\n    returns (bool)\n  {\n    if (!self.exists[value])\n      return false;\n    uint index = indexOf(self, value);\n    pop(self, index);\n    return true;\n  }\n\n  function pop(Bytes32Set storage self, uint index) public\n    inBounds(self, index)\n    returns (bytes32)\n\t{\n    bytes32 value = get(self, index);\n\n    if (index != self.values.length - 1) {\n      bytes32 lastValue = last(self);\n      self.exists[lastValue] = false;\n      set(self, index, lastValue);\n      self.indices[lastValue] = index;\n    }\n    self.values.length -= 1;\n\n    delete self.indices[value];\n    delete self.exists[value];\n\n    return value;\n  }\n\n  function replace(Bytes32Set storage self, bytes32 old, bytes32 nu) public\n    returns (bool)\n  {\n    return remove(self, old) && add(self, nu);\n  }\n\n  function first(Bytes32Set storage self) public constant\n    notEmpty(self)\n    returns (bytes32)\n  {\n    return get(self, 0);\n  }\n\n  function last(Bytes32Set storage self) public constant\n    notEmpty(self)\n    returns (bytes32)\n  {\n    return get(self, self.values.length - 1);\n  }\n\n  function indexOf(Bytes32Set storage self, bytes32 value) public constant\n    returns (uint)\n  {\n    if (!self.exists[value])\n      return uint(-1);\n    return self.indices[value];\n  }\n\n  function contains(Bytes32Set storage self, bytes32 value) public constant\n    returns (bool)\n  {\n    return self.exists[value];\n  }\n\n  function size(Bytes32Set storage self) public constant\n    returns (uint)\n  {\n    return self.values.length;\n  }\n}\n",
  "sourcePath": "/Users/orie/Code/dapp/contracts/TransmuteFramework/TransmuteFramework/SetLib/Bytes32Set/Bytes32SetLib.sol",
  "schemaVersion": "1.0.0",
  "updatedAt": "2017-10-08T20:58:06.796Z"
}