{
  "contractName": "EventStoreLib",
  "abi": [
    {
      "constant": false,
      "inputs": [
        {
          "name": "self",
          "type": "EventStoreLib.EsEventStorage storage"
        },
        {
          "name": "_eventType",
          "type": "bytes32"
        },
        {
          "name": "_keyType",
          "type": "bytes1"
        },
        {
          "name": "_valueType",
          "type": "bytes1"
        },
        {
          "name": "_key",
          "type": "bytes32"
        },
        {
          "name": "_value",
          "type": "bytes32"
        }
      ],
      "name": "writeEvent",
      "outputs": [
        {
          "name": "",
          "type": "uint256"
        }
      ],
      "payable": false,
      "type": "function"
    },
    {
      "constant": false,
      "inputs": [
        {
          "name": "self",
          "type": "EventStoreLib.EsEventStorage storage"
        },
        {
          "name": "_eventId",
          "type": "uint256"
        }
      ],
      "name": "readEvent",
      "outputs": [
        {
          "name": "",
          "type": "uint256"
        },
        {
          "name": "",
          "type": "address"
        },
        {
          "name": "",
          "type": "uint256"
        },
        {
          "name": "",
          "type": "bytes32"
        },
        {
          "name": "",
          "type": "bytes1"
        },
        {
          "name": "",
          "type": "bytes1"
        },
        {
          "name": "",
          "type": "bytes32"
        },
        {
          "name": "",
          "type": "bytes32"
        }
      ],
      "payable": false,
      "type": "function"
    },
    {
      "anonymous": false,
      "inputs": [
        {
          "indexed": false,
          "name": "Id",
          "type": "uint256"
        },
        {
          "indexed": false,
          "name": "TxOrigin",
          "type": "address"
        },
        {
          "indexed": false,
          "name": "Created",
          "type": "uint256"
        },
        {
          "indexed": false,
          "name": "EventType",
          "type": "bytes32"
        },
        {
          "indexed": false,
          "name": "KeyType",
          "type": "bytes1"
        },
        {
          "indexed": false,
          "name": "ValueType",
          "type": "bytes1"
        },
        {
          "indexed": false,
          "name": "Key",
          "type": "bytes32"
        },
        {
          "indexed": false,
          "name": "Value",
          "type": "bytes32"
        }
      ],
      "name": "EsEvent",
      "type": "event"
    }
  ],
  "bytecode": "0x6060604052341561000f57600080fd5b5b6104c48061001f6000396000f300606060405263ffffffff7c01000000000000000000000000000000000000000000000000000000006000350416633bb642038114610048578063a057fd5e14610081575b600080fd5b61006f600435602435600160f860020a03196044358116906064351660843560a4356100f5565b60405190815260200160405180910390f35b61008f6004356024356102d9565b60405197885273ffffffffffffffffffffffffffffffffffffffff90961660208801526040808801959095526060870193909352600160f860020a031991821660808701521660a085015260c084015260e0830191909152610100909101905180910390f35b60008060006101026103c9565b895473ffffffffffffffffffffffffffffffffffffffff331682524260208301819052604083018b9052600160f860020a0319808b1660608501528916608084015260a0830188905260c08301879052935091507f34fda208d95da3b89ce2ca6e488201282198f339ef139dd80138a430c8d03a2482825183602001518460400151856060015186608001518760a001518860c0015160405197885273ffffffffffffffffffffffffffffffffffffffff90961660208801526040808801959095526060870193909352600160f860020a031991821660808701521660a085015260c084015260e0830191909152610100909101905180910390a189548a906001810161020f8382610405565b916000526020600020906006020160005b5082908151815473ffffffffffffffffffffffffffffffffffffffff191673ffffffffffffffffffffffffffffffffffffffff919091161781556020820151816001015560408201516002820155606082015160038201805460ff191660f860020a909204919091179055608082015160038201805460f860020a9092046101000261ff001990921691909117905560a0820151600482015560c0820151600590910155509193508391505b5050509695505050505050565b6000806000806000806000806102ed6103c9565b8a548b908b9081106102fb57fe5b906000526020600020906006020160005b5060e06040519081016040908152825473ffffffffffffffffffffffffffffffffffffffff16825260018301546020830152600283015490820152600382015460f860020a808202600160f860020a0319908116606085015261010090920402166080820152600482015460a082015260059091015460c0820152905089815182602001518360400151846060015185608001518660a001518760c00151985098509850985098509850985098505b509295985092959890939650565b60e06040519081016040908152600080835260208301819052908201819052606082018190526080820181905260a0820181905260c082015290565b815481835581811511610431576006028160060283600052602060002091820191016104319190610437565b5b505050565b61049591905b8082111561049157805473ffffffffffffffffffffffffffffffffffffffff191681556000600182018190556002820181905560038201805461ffff1916905560048201819055600582015560060161043d565b5090565b905600a165627a7a72305820fff30d28b3b2c417452ae4b918546dca92e810113396ad40001ffef2a6a7efcc0029",
  "source": "pragma solidity ^0.4.11;\n\nlibrary EventStoreLib{\n\n    struct EsEventStruct {\n        address TxOrigin;\n        uint Created;\n\n        bytes32 EventType; // Event Type + Version\n\n        bytes1 KeyType; // A - Address, U - UInt, B - Bytes32, X - Bytes32 (ascii)\n        bytes1 ValueType; // A - Address, U - UInt, B - Bytes32, X - Bytes32 (ascii)\n        \n        bytes32 Key; // Key \n        bytes32 Value; // Value \n    }\n\n    struct EsEventStorage {\n        EsEventStruct[] events;\n    }\n\n    // WRITE EVENT\n    function writeEvent(\n        EsEventStorage storage self, \n        bytes32 _eventType,\n        bytes1 _keyType,\n        bytes1 _valueType,\n        bytes32 _key,\n        bytes32 _value\n    ) returns (uint) {\n        uint _created = now;\n        uint _eventId = self.events.length;\n\n        EsEventStruct memory esEvent;\n        esEvent.TxOrigin = msg.sender;\n        esEvent.Created = _created;\n\n        esEvent.EventType = _eventType;\n\n        esEvent.KeyType = _keyType;\n        esEvent.ValueType = _valueType;\n\n        esEvent.Key = _key;\n        esEvent.Value = _value;\n\n        EsEvent(\n            _eventId,\n            esEvent.TxOrigin, \n            esEvent.Created,\n            esEvent.EventType,\n            esEvent.KeyType,\n            esEvent.ValueType,\n            esEvent.Key,\n            esEvent.Value\n        );\n        self.events.push(esEvent);\n        return _eventId;\n    }\n\n    // READ EVENT\n    function readEvent(EsEventStorage storage self, uint _eventId) \n    returns (uint, address, uint, bytes32, bytes1, bytes1, bytes32, bytes32) {\n        EsEventStruct memory esEvent = self.events[_eventId];\n        return (\n            _eventId, \n            esEvent.TxOrigin, \n            esEvent.Created,\n            esEvent.EventType,\n\n            esEvent.KeyType,\n            esEvent.ValueType,\n\n            esEvent.Key,\n            esEvent.Value\n        );\n    }\n\n    event EsEvent(\n        uint Id,\n        address TxOrigin,\n        uint Created,\n\n        bytes32 EventType,\n\n        bytes1 KeyType,\n        bytes1 ValueType,\n\n        bytes32 Key,\n        bytes32 Value\n    );\n\n}",
  "sourcePath": "/Users/orie/Code/dapp/contracts/TransmuteFramework/TransmuteFramework/EventStore/EventStoreLib.sol",
  "schemaVersion": "1.0.0",
  "updatedAt": "2017-10-08T20:58:06.807Z"
}