{
  "contractName": "Killable",
  "abi": [
    {
      "constant": false,
      "inputs": [],
      "name": "kill",
      "outputs": [],
      "payable": false,
      "type": "function"
    },
    {
      "constant": true,
      "inputs": [],
      "name": "owner",
      "outputs": [
        {
          "name": "",
          "type": "address"
        }
      ],
      "payable": false,
      "type": "function"
    },
    {
      "constant": false,
      "inputs": [
        {
          "name": "newOwner",
          "type": "address"
        }
      ],
      "name": "transferOwnership",
      "outputs": [],
      "payable": false,
      "type": "function"
    }
  ],
  "bytecode": "0x60606040525b60008054600160a060020a03191633600160a060020a03161790555b5b610158806100316000396000f300606060405263ffffffff7c010000000000000000000000000000000000000000000000000000000060003504166341c0e1b581146100535780638da5cb5b14610068578063f2fde38b14610097575b600080fd5b341561005e57600080fd5b6100666100b8565b005b341561007357600080fd5b61007b6100c8565b604051600160a060020a03909116815260200160405180910390f35b34156100a257600080fd5b610066600160a060020a03600435166100d7565b005b600054600160a060020a0316ff5b565b600054600160a060020a031681565b60005433600160a060020a039081169116141561012657600160a060020a03811615610126576000805473ffffffffffffffffffffffffffffffffffffffff1916600160a060020a0383161790555b5b5b5b505600a165627a7a7230582090be9a065587b642dc39d28e371b4f5e29fac0ba6da8504dc76e36227b183c380029",
  "source": "pragma solidity ^0.4.11;\n\nimport \"../ownership/Ownable.sol\";\n\n/*\n * Killable\n * Base contract that can be killed by owner. All funds in contract will be sent to the owner.\n */\ncontract Killable is Ownable {\n  function kill() {\n    selfdestruct(owner);\n  }\n}\n",
  "sourcePath": "/Users/orie/Code/dapp/contracts/TransmuteFramework/TransmuteFramework/zeppelin/lifecycle/Killable.sol",
  "schemaVersion": "1.0.0",
  "updatedAt": "2017-10-08T20:58:06.766Z"
}