{
  "contractName": "RBAC",
  "abi": [
    {
      "constant": false,
      "inputs": [
        {
          "name": "target",
          "type": "address"
        }
      ],
      "name": "getAddressRole",
      "outputs": [
        {
          "name": "",
          "type": "bytes32"
        }
      ],
      "payable": false,
      "type": "function"
    },
    {
      "constant": false,
      "inputs": [],
      "name": "kill",
      "outputs": [],
      "payable": false,
      "type": "function"
    },
    {
      "constant": false,
      "inputs": [],
      "name": "eventCount",
      "outputs": [
        {
          "name": "",
          "type": "uint256"
        }
      ],
      "payable": false,
      "type": "function"
    },
    {
      "constant": false,
      "inputs": [
        {
          "name": "role",
          "type": "bytes32"
        },
        {
          "name": "resource",
          "type": "bytes32"
        },
        {
          "name": "action",
          "type": "bytes32"
        },
        {
          "name": "attributes",
          "type": "bytes32[]"
        }
      ],
      "name": "setGrant",
      "outputs": [],
      "payable": false,
      "type": "function"
    },
    {
      "constant": false,
      "inputs": [
        {
          "name": "role",
          "type": "bytes32"
        },
        {
          "name": "action",
          "type": "bytes32"
        },
        {
          "name": "resource",
          "type": "bytes32"
        }
      ],
      "name": "canRoleActionResource",
      "outputs": [
        {
          "name": "granted",
          "type": "bool"
        },
        {
          "name": "_role",
          "type": "bytes32"
        },
        {
          "name": "_resource",
          "type": "bytes32"
        }
      ],
      "payable": false,
      "type": "function"
    },
    {
      "constant": true,
      "inputs": [],
      "name": "owner",
      "outputs": [
        {
          "name": "",
          "type": "address"
        }
      ],
      "payable": false,
      "type": "function"
    },
    {
      "constant": false,
      "inputs": [
        {
          "name": "index",
          "type": "uint256"
        }
      ],
      "name": "getGrant",
      "outputs": [
        {
          "name": "role",
          "type": "bytes32"
        },
        {
          "name": "resource",
          "type": "bytes32"
        },
        {
          "name": "action",
          "type": "bytes32"
        },
        {
          "name": "attributes",
          "type": "bytes32[]"
        }
      ],
      "payable": false,
      "type": "function"
    },
    {
      "constant": false,
      "inputs": [],
      "name": "grantCount",
      "outputs": [
        {
          "name": "",
          "type": "uint256"
        }
      ],
      "payable": false,
      "type": "function"
    },
    {
      "constant": false,
      "inputs": [
        {
          "name": "target",
          "type": "address"
        },
        {
          "name": "role",
          "type": "bytes32"
        }
      ],
      "name": "setAddressRole",
      "outputs": [],
      "payable": false,
      "type": "function"
    },
    {
      "constant": false,
      "inputs": [
        {
          "name": "_eventId",
          "type": "uint256"
        }
      ],
      "name": "readEvent",
      "outputs": [
        {
          "name": "",
          "type": "uint256"
        },
        {
          "name": "",
          "type": "address"
        },
        {
          "name": "",
          "type": "uint256"
        },
        {
          "name": "",
          "type": "bytes32"
        },
        {
          "name": "",
          "type": "bytes1"
        },
        {
          "name": "",
          "type": "bytes1"
        },
        {
          "name": "",
          "type": "bytes32"
        },
        {
          "name": "",
          "type": "bytes32"
        }
      ],
      "payable": false,
      "type": "function"
    },
    {
      "constant": false,
      "inputs": [
        {
          "name": "newOwner",
          "type": "address"
        }
      ],
      "name": "transferOwnership",
      "outputs": [],
      "payable": false,
      "type": "function"
    },
    {
      "inputs": [],
      "payable": true,
      "type": "constructor"
    },
    {
      "payable": true,
      "type": "fallback"
    },
    {
      "anonymous": false,
      "inputs": [
        {
          "indexed": false,
          "name": "test",
          "type": "bool"
        }
      ],
      "name": "DEBUG",
      "type": "event"
    },
    {
      "anonymous": false,
      "inputs": [
        {
          "indexed": false,
          "name": "Id",
          "type": "uint256"
        },
        {
          "indexed": false,
          "name": "TxOrigin",
          "type": "address"
        },
        {
          "indexed": false,
          "name": "Created",
          "type": "uint256"
        },
        {
          "indexed": false,
          "name": "EventType",
          "type": "bytes32"
        },
        {
          "indexed": false,
          "name": "KeyType",
          "type": "bytes1"
        },
        {
          "indexed": false,
          "name": "ValueType",
          "type": "bytes1"
        },
        {
          "indexed": false,
          "name": "Key",
          "type": "bytes32"
        },
        {
          "indexed": false,
          "name": "Value",
          "type": "bytes32"
        }
      ],
      "name": "EsEvent",
      "type": "event"
    },
    {
      "anonymous": false,
      "inputs": [
        {
          "indexed": false,
          "name": "role",
          "type": "bytes32"
        },
        {
          "indexed": false,
          "name": "resource",
          "type": "bytes32"
        },
        {
          "indexed": false,
          "name": "action",
          "type": "bytes32"
        },
        {
          "indexed": false,
          "name": "attributes",
          "type": "bytes32[]"
        }
      ],
      "name": "GrantEvent",
      "type": "event"
    }
  ],
  "bytecode": "0x60606040525b5b60008054600160a060020a03191633600160a060020a03161790555b73__Bytes32SetLib_________________________6363d4d33560037f41435f524f4c455f41535349474e4544000000000000000000000000000000006000604051602001526040517c010000000000000000000000000000000000000000000000000000000063ffffffff85160281526004810192909252602482015260440160206040518083038186803b15156100ba57600080fd5b6102c65a03f415156100cb57600080fd5b50505060405180515073__Bytes32SetLib_________________________90506363d4d33560037f41435f4752414e545f5752495454454e000000000000000000000000000000006000604051602001526040517c010000000000000000000000000000000000000000000000000000000063ffffffff85160281526004810192909252602482015260440160206040518083038186803b151561016e57600080fd5b6102c65a03f4151561017f57600080fd5b505050604051805150505b5b610d668061019a6000396000f300606060405236156100935763ffffffff60e060020a6000350416630577a595811461009b57806341c0e1b5146100cc57806371be2e4a146100e15780637e4f395c146101065780637e7d387f146101655780638da5cb5b146101a7578063b8cc6c93146101d6578063cab4267214610257578063d1ac2c201461027c578063e1ba30a9146102a0578063f2fde38b14610327575b5b600080fd5b005b34156100a657600080fd5b6100ba600160a060020a0360043516610348565b60405190815260200160405180910390f35b34156100d757600080fd5b6100996103a2565b005b34156100ec57600080fd5b6100ba6103b2565b60405190815260200160405180910390f35b341561011157600080fd5b610099600480359060248035916044359160849060643590810190830135806020818102016040519081016040528093929190818152602001838360200280828437509496506103b995505050505050565b005b341561017057600080fd5b610181600435602435604435610817565b604051921515835260208301919091526040808301919091526060909101905180910390f35b34156101b257600080fd5b6101ba61086d565b604051600160a060020a03909116815260200160405180910390f35b34156101e157600080fd5b6101ec60043561087c565b604051848152602081018490526040810183905260806060820181815290820183818151815260200191508051906020019060200280838360005b838110156102405780820151818401525b602001610227565b505050509050019550505050505060405180910390f35b341561026257600080fd5b6100ba610964565b60405190815260200160405180910390f35b341561028757600080fd5b610099600160a060020a036004351660243561096b565b005b34156102ab57600080fd5b6102b66004356109fc565b604051978852600160a060020a03909616602088015260408088019590955260608701939093527fff0000000000000000000000000000000000000000000000000000000000000091821660808701521660a085015260c084015260e0830191909152610100909101905180910390f35b341561033257600080fd5b610099600160a060020a0360043516610aca565b005b6000805433600160a060020a0390811691161480610377575081600160a060020a031633600160a060020a0316145b151561038257600080fd5b50600160a060020a0381166000908152600660205260409020545b919050565b600054600160a060020a0316ff5b565b6001545b90565b6103c1610be7565b838360008080807f6772616e7400000000000000000000000000000000000000000000000000000086141561040b5760005433600160a060020a0390811691161461040b57600080fd5b5b60005433600160a060020a03908116911614156105fa578a8752602087018a90526040870189905260608701889052600280546001810161044d8382610c15565b916000526020600020906004020160005b508890815181556020820151600182015560408201516002820155606082015181600301908051610493929160200190610c47565b505050507f02266b19b7dc2c60e47fd601ca798e7e7cc9e6ec65f1d26a77b1bb93885508af8b8b8b8b604051848152602081018490526040810183905260806060820181815290820183818151815260200191508051906020019060200280838360005b838110156105105780820151818401525b6020016104f7565b505050509050019550505050505060405180910390a187511515600760008d8c8e60405192835260208301919091526040808301919091526060909101905190819003902081526020810191909152604001600020805460ff19169115159190911790556002546105f3907f41435f4752414e545f5752495454454e000000000000000000000000000000009060fb60020a600b02907f5500000000000000000000000000000000000000000000000000000000000000907f696e6465780000000000000000000000000000000000000000000000000000009060001901610b1f565b505b610808565b600160a060020a0333166000908152600660205260409020549350610620848688610817565b9250925092508215610093578a8752602087018a90526040870189905260608701889052600280546001810161044d8382610c15565b916000526020600020906004020160005b508890815181556020820151600182015560408201516002820155606082015181600301908051610493929160200190610c47565b505050507f02266b19b7dc2c60e47fd601ca798e7e7cc9e6ec65f1d26a77b1bb93885508af8b8b8b8b604051848152602081018490526040810183905260806060820181815290820183818151815260200191508051906020019060200280838360005b838110156105105780820151818401525b6020016104f7565b505050509050019550505050505060405180910390a187511515600760008d8c8e60405192835260208301919091526040808301919091526060909101905190819003902081526020810191909152604001600020805460ff19169115159190911790556002546105f3907f41435f4752414e545f5752495454454e000000000000000000000000000000009060fb60020a600b02907f5500000000000000000000000000000000000000000000000000000000000000907f696e6465780000000000000000000000000000000000000000000000000000009060001901610b1f565b505b610808565b600080fd5b5b5b5050505050505050505050565b600080600060076000878787604051928352602083019190915260408083019190915260609091019051908190039020815260208101919091526040016000205460ff1692508591508390505b93509350939050565b600054600160a060020a031681565b6000806000610889610c95565b610891610be7565b600280548790811061089f57fe5b906000526020600020906004020160005b5060806040519081016040908152825482526001830154602080840191909152600284015482840152600384018054939493606086019391929091828202909101905190810160405280929190818152602001828054801561093257602002820191906000526020600020905b8154815260019091019060200180831161091d575b50505050508152505090508060000151816020015182604001518360600151929750909550935091505b509193509193565b6002545b90565b60005433600160a060020a03908116911614156109f657600160a060020a03821660008181526006602052604090208290556109f4907f41435f524f4c455f41535349474e454400000000000000000000000000000000907f41000000000000000000000000000000000000000000000000000000000000009060fb60020a600b029085610b1f565b505b5b5b5050565b60008060008060008060008073__EventStoreLib_________________________63a057fd5e60018b6000604051610100015260405160e060020a63ffffffff8516028152600481019290925260248201526044016101006040518083038186803b1515610a6957600080fd5b6102c65a03f41515610a7a57600080fd5b50505060405180519060200180519060200180519060200180519060200180519060200180519060200180519060200180519050975097509750975097509750975097505b919395975091939597565b60005433600160a060020a0390811691161415610b1957600160a060020a03811615610b19576000805473ffffffffffffffffffffffffffffffffffffffff1916600160a060020a0383161790555b5b5b5b50565b600073__EventStoreLib_________________________633bb642036001888888888860006040516020015260405160e060020a63ffffffff8916028152600481019690965260248601949094527fff00000000000000000000000000000000000000000000000000000000000000928316604486015291166064840152608483015260a482015260c40160206040518083038186803b1515610bc157600080fd5b6102c65a03f41515610bd257600080fd5b50505060405180519150505b95945050505050565b608060405190810160409081526000808352602083018190529082015260608101610c10610c95565b905290565b8154818355818115116109f4576004028160040283600052602060002091820191016109f49190610cb9565b5b505050565b828054828255906000526020600020908101928215610c84579160200282015b82811115610c845782518255602090920191600190910190610c67565b5b50610c91929150610cf7565b5090565b60206040519081016040526000815290565b60206040519081016040526000815290565b6103b691905b80821115610c915760008082556001820181905560028201819055610ce76003830182610d18565b50600401610cbf565b5090565b90565b6103b691905b80821115610c915760008155600101610cfd565b5090565b90565b5080546000825590600052602060002090810190610b199190610cf7565b5b505600a165627a7a72305820713679f845d709b12e21e335a198cd8c760b4522b024e8a503355b6bde923f690029",
  "deployedBytecode": "0x606060405236156100935763ffffffff60e060020a6000350416630577a595811461009b57806341c0e1b5146100cc57806371be2e4a146100e15780637e4f395c146101065780637e7d387f146101655780638da5cb5b146101a7578063b8cc6c93146101d6578063cab4267214610257578063d1ac2c201461027c578063e1ba30a9146102a0578063f2fde38b14610327575b5b600080fd5b005b34156100a657600080fd5b6100ba600160a060020a0360043516610348565b60405190815260200160405180910390f35b34156100d757600080fd5b6100996103a2565b005b34156100ec57600080fd5b6100ba6103b2565b60405190815260200160405180910390f35b341561011157600080fd5b610099600480359060248035916044359160849060643590810190830135806020818102016040519081016040528093929190818152602001838360200280828437509496506103b995505050505050565b005b341561017057600080fd5b610181600435602435604435610817565b604051921515835260208301919091526040808301919091526060909101905180910390f35b34156101b257600080fd5b6101ba61086d565b604051600160a060020a03909116815260200160405180910390f35b34156101e157600080fd5b6101ec60043561087c565b604051848152602081018490526040810183905260806060820181815290820183818151815260200191508051906020019060200280838360005b838110156102405780820151818401525b602001610227565b505050509050019550505050505060405180910390f35b341561026257600080fd5b6100ba610964565b60405190815260200160405180910390f35b341561028757600080fd5b610099600160a060020a036004351660243561096b565b005b34156102ab57600080fd5b6102b66004356109fc565b604051978852600160a060020a03909616602088015260408088019590955260608701939093527fff0000000000000000000000000000000000000000000000000000000000000091821660808701521660a085015260c084015260e0830191909152610100909101905180910390f35b341561033257600080fd5b610099600160a060020a0360043516610aca565b005b6000805433600160a060020a0390811691161480610377575081600160a060020a031633600160a060020a0316145b151561038257600080fd5b50600160a060020a0381166000908152600660205260409020545b919050565b600054600160a060020a0316ff5b565b6001545b90565b6103c1610be7565b838360008080807f6772616e7400000000000000000000000000000000000000000000000000000086141561040b5760005433600160a060020a0390811691161461040b57600080fd5b5b60005433600160a060020a03908116911614156105fa578a8752602087018a90526040870189905260608701889052600280546001810161044d8382610c15565b916000526020600020906004020160005b508890815181556020820151600182015560408201516002820155606082015181600301908051610493929160200190610c47565b505050507f02266b19b7dc2c60e47fd601ca798e7e7cc9e6ec65f1d26a77b1bb93885508af8b8b8b8b604051848152602081018490526040810183905260806060820181815290820183818151815260200191508051906020019060200280838360005b838110156105105780820151818401525b6020016104f7565b505050509050019550505050505060405180910390a187511515600760008d8c8e60405192835260208301919091526040808301919091526060909101905190819003902081526020810191909152604001600020805460ff19169115159190911790556002546105f3907f41435f4752414e545f5752495454454e000000000000000000000000000000009060fb60020a600b02907f5500000000000000000000000000000000000000000000000000000000000000907f696e6465780000000000000000000000000000000000000000000000000000009060001901610b1f565b505b610808565b600160a060020a0333166000908152600660205260409020549350610620848688610817565b9250925092508215610093578a8752602087018a90526040870189905260608701889052600280546001810161044d8382610c15565b916000526020600020906004020160005b508890815181556020820151600182015560408201516002820155606082015181600301908051610493929160200190610c47565b505050507f02266b19b7dc2c60e47fd601ca798e7e7cc9e6ec65f1d26a77b1bb93885508af8b8b8b8b604051848152602081018490526040810183905260806060820181815290820183818151815260200191508051906020019060200280838360005b838110156105105780820151818401525b6020016104f7565b505050509050019550505050505060405180910390a187511515600760008d8c8e60405192835260208301919091526040808301919091526060909101905190819003902081526020810191909152604001600020805460ff19169115159190911790556002546105f3907f41435f4752414e545f5752495454454e000000000000000000000000000000009060fb60020a600b02907f5500000000000000000000000000000000000000000000000000000000000000907f696e6465780000000000000000000000000000000000000000000000000000009060001901610b1f565b505b610808565b600080fd5b5b5b5050505050505050505050565b600080600060076000878787604051928352602083019190915260408083019190915260609091019051908190039020815260208101919091526040016000205460ff1692508591508390505b93509350939050565b600054600160a060020a031681565b6000806000610889610c95565b610891610be7565b600280548790811061089f57fe5b906000526020600020906004020160005b5060806040519081016040908152825482526001830154602080840191909152600284015482840152600384018054939493606086019391929091828202909101905190810160405280929190818152602001828054801561093257602002820191906000526020600020905b8154815260019091019060200180831161091d575b50505050508152505090508060000151816020015182604001518360600151929750909550935091505b509193509193565b6002545b90565b60005433600160a060020a03908116911614156109f657600160a060020a03821660008181526006602052604090208290556109f4907f41435f524f4c455f41535349474e454400000000000000000000000000000000907f41000000000000000000000000000000000000000000000000000000000000009060fb60020a600b029085610b1f565b505b5b5b5050565b60008060008060008060008073__EventStoreLib_________________________63a057fd5e60018b6000604051610100015260405160e060020a63ffffffff8516028152600481019290925260248201526044016101006040518083038186803b1515610a6957600080fd5b6102c65a03f41515610a7a57600080fd5b50505060405180519060200180519060200180519060200180519060200180519060200180519060200180519060200180519050975097509750975097509750975097505b919395975091939597565b60005433600160a060020a0390811691161415610b1957600160a060020a03811615610b19576000805473ffffffffffffffffffffffffffffffffffffffff1916600160a060020a0383161790555b5b5b5b50565b600073__EventStoreLib_________________________633bb642036001888888888860006040516020015260405160e060020a63ffffffff8916028152600481019690965260248601949094527fff00000000000000000000000000000000000000000000000000000000000000928316604486015291166064840152608483015260a482015260c40160206040518083038186803b1515610bc157600080fd5b6102c65a03f41515610bd257600080fd5b50505060405180519150505b95945050505050565b608060405190810160409081526000808352602083018190529082015260608101610c10610c95565b905290565b8154818355818115116109f4576004028160040283600052602060002091820191016109f49190610cb9565b5b505050565b828054828255906000526020600020908101928215610c84579160200282015b82811115610c845782518255602090920191600190910190610c67565b5b50610c91929150610cf7565b5090565b60206040519081016040526000815290565b60206040519081016040526000815290565b6103b691905b80821115610c915760008082556001820181905560028201819055610ce76003830182610d18565b50600401610cbf565b5090565b90565b6103b691905b80821115610c915760008155600101610cfd565b5090565b90565b5080546000825590600052602060002090810190610b199190610cf7565b5b505600a165627a7a72305820713679f845d709b12e21e335a198cd8c760b4522b024e8a503355b6bde923f690029",
  "source": "pragma solidity ^0.4.11;\n\nimport \"../EventStore/EventStoreLib.sol\";\nimport \"../SetLib/Bytes32Set/Bytes32SetLib.sol\";\nimport '../zeppelin/lifecycle/Killable.sol';\n\ncontract RBAC is Killable {\n\n  using Bytes32SetLib for Bytes32SetLib.Bytes32Set;\n  using EventStoreLib for EventStoreLib.EsEventStorage;\n\n  EventStoreLib.EsEventStorage store;\n\n  struct Grant {\n    bytes32 role;\n    bytes32 resource;\n    bytes32 action;\n    bytes32[] attributes;\n  }\n\n  Grant[] grants;\n\n  Bytes32SetLib.Bytes32Set internalEventTypes;\n\n  mapping(address => bytes32) addressRole;\n  mapping(bytes32 => bool) isHashOfRoleActionResourceGranted;\n\n  event DEBUG (\n    bool test\n  );\n\n  // FALLBACK\n  function () payable { throw; }\n  \n  // CONSTRUCTOR  \n  function RBAC() payable {\n    internalEventTypes.add(bytes32('AC_ROLE_ASSIGNED'));\n    internalEventTypes.add(bytes32('AC_GRANT_WRITTEN'));\n  }\n\n  function eventCount() \n  returns (uint)\n  {\n    return store.events.length;\n  }\n\n   modifier canSetGrant(bytes32 resource, bytes32 action)\n  {\n    // only the owner can setGrants for the grant resource (no write up)\n    // just because an account can setGrants does not mean they can give that ability to others...\n    if (resource == 'grant') {\n      require(msg.sender == owner);\n    }\n    if (msg.sender == owner) {\n      _;\n    } else {\n      bytes32 role = addressRole[msg.sender];\n      var (granted, _role, _resource) = canRoleActionResource(role, action, resource);\n      // DEBUG(granted);\n      if(granted){\n        _;\n      } else {\n        throw;\n      }\n    }\n    // throw;\n    // require(msg.sender == owner);\n    // _;\n  }\n\n  function setAddressRole(address target, bytes32 role)\n  public\n  onlyOwner\n  {\n    addressRole[target] = role;\n    writeInternalEvent('AC_ROLE_ASSIGNED', 'A', 'X', bytes32(target), role);\n  }\n\n  function getAddressRole(address target)\n  public\n  returns (bytes32)\n  {\n    // if not the owner or the requesting address, do not return the role for the given address\n    // EVENT SOURCING DESTOYS THIS PRIVACY\n    // IS IT OK THAT ANY ADDRESS ROLE CAN BE KNOWN?\n    require(msg.sender == owner || msg.sender == target);\n    return addressRole[target];\n  }\n  \n  function grantCount() \n  returns (uint)\n  {\n    return grants.length;\n  }\n\n  function setGrant(bytes32 role, bytes32 resource, bytes32 action, bytes32[] attributes)\n    public\n    canSetGrant(resource, action)\n  {\n    Grant memory grant;\n    grant.role = role;\n    grant.resource = resource;\n    grant.action = action;\n    grant.attributes = attributes;\n\n    grants.push(grant);\n    GrantEvent(role, resource, action, attributes);\n    isHashOfRoleActionResourceGranted[keccak256(role, action, resource)] = attributes.length != 0;\n    writeInternalEvent('AC_GRANT_WRITTEN', 'X', 'U', 'index', bytes32(grants.length-1));\n  }\n\n  function getGrant(uint index)\n  returns (bytes32 role, bytes32 resource, bytes32 action, bytes32[] attributes)\n  {\n    Grant memory grant = grants[index];\n    return (grant.role, grant.resource, grant.action, grant.attributes);\n  }\n\n  // The client interprets attributes = granted ? ['*'] : [] \n  // so no need to return a bytes32 array here...\n  function canRoleActionResource(bytes32 role, bytes32 action, bytes32 resource)\n  returns (bool granted, bytes32 _role, bytes32 _resource)\n  {\n    granted = isHashOfRoleActionResourceGranted[keccak256(role, action, resource)];\n    _role = role;\n    _resource = resource;\n  }\n\n  function writeInternalEvent(\n    bytes32 _eventType, \n    bytes1 _keyType,\n    bytes1 _valueType,\n    bytes32 _key,\n    bytes32 _value\n  ) \n    internal \n    returns (uint)\n  {\n    return EventStoreLib.writeEvent(\n      store, \n      _eventType, \n      _keyType,\n      _valueType,\n      _key,\n      _value\n    );\n  }\n\n  // READ EVENT\n  function readEvent(uint _eventId) \n    public \n    returns (\n      uint, \n      address, \n      uint, \n      bytes32, \n      bytes1,\n      bytes1,\n      bytes32,\n      bytes32\n    )\n  {\n    return EventStoreLib.readEvent(store, _eventId);\n  }\n\n  event EsEvent(\n    uint Id,\n    address TxOrigin,\n    uint Created,\n\n    bytes32 EventType,\n\n    bytes1 KeyType,\n    bytes1 ValueType,\n\n    bytes32 Key,\n    bytes32 Value\n  );\n\n  event GrantEvent (\n    bytes32 role, \n    bytes32 resource, \n    bytes32 action, \n    bytes32[] attributes\n  );\n\n}",
  "sourcePath": "/Users/orie/Code/dapp/contracts/TransmuteFramework/TransmuteFramework/Security/RBAC.sol",
  "schemaVersion": "1.0.0",
  "updatedAt": "2017-10-08T20:58:06.810Z"
}