{
  "contractName": "UIntSetSpec",
  "abi": [
    {
      "constant": false,
      "inputs": [
        {
          "name": "value",
          "type": "uint256"
        }
      ],
      "name": "add",
      "outputs": [
        {
          "name": "",
          "type": "bool"
        }
      ],
      "payable": false,
      "type": "function"
    },
    {
      "constant": true,
      "inputs": [],
      "name": "getValues",
      "outputs": [
        {
          "name": "",
          "type": "uint256[]"
        }
      ],
      "payable": false,
      "type": "function"
    },
    {
      "constant": false,
      "inputs": [
        {
          "name": "index",
          "type": "uint256"
        },
        {
          "name": "value",
          "type": "uint256"
        }
      ],
      "name": "set",
      "outputs": [
        {
          "name": "",
          "type": "bool"
        }
      ],
      "payable": false,
      "type": "function"
    },
    {
      "constant": true,
      "inputs": [],
      "name": "first",
      "outputs": [
        {
          "name": "",
          "type": "uint256"
        }
      ],
      "payable": false,
      "type": "function"
    },
    {
      "constant": false,
      "inputs": [],
      "name": "kill",
      "outputs": [],
      "payable": false,
      "type": "function"
    },
    {
      "constant": true,
      "inputs": [],
      "name": "last",
      "outputs": [
        {
          "name": "",
          "type": "uint256"
        }
      ],
      "payable": false,
      "type": "function"
    },
    {
      "constant": false,
      "inputs": [
        {
          "name": "value",
          "type": "uint256"
        }
      ],
      "name": "remove",
      "outputs": [
        {
          "name": "",
          "type": "bool"
        }
      ],
      "payable": false,
      "type": "function"
    },
    {
      "constant": false,
      "inputs": [
        {
          "name": "index",
          "type": "uint256"
        }
      ],
      "name": "pop",
      "outputs": [
        {
          "name": "",
          "type": "uint256"
        }
      ],
      "payable": false,
      "type": "function"
    },
    {
      "constant": true,
      "inputs": [],
      "name": "lastRemove",
      "outputs": [
        {
          "name": "",
          "type": "bool"
        }
      ],
      "payable": false,
      "type": "function"
    },
    {
      "constant": true,
      "inputs": [],
      "name": "owner",
      "outputs": [
        {
          "name": "",
          "type": "address"
        }
      ],
      "payable": false,
      "type": "function"
    },
    {
      "constant": true,
      "inputs": [],
      "name": "lastPop",
      "outputs": [
        {
          "name": "",
          "type": "uint256"
        }
      ],
      "payable": false,
      "type": "function"
    },
    {
      "constant": true,
      "inputs": [
        {
          "name": "value",
          "type": "uint256"
        }
      ],
      "name": "indexOf",
      "outputs": [
        {
          "name": "",
          "type": "uint256"
        }
      ],
      "payable": false,
      "type": "function"
    },
    {
      "constant": true,
      "inputs": [],
      "name": "size",
      "outputs": [
        {
          "name": "",
          "type": "uint256"
        }
      ],
      "payable": false,
      "type": "function"
    },
    {
      "constant": true,
      "inputs": [
        {
          "name": "index",
          "type": "uint256"
        }
      ],
      "name": "get",
      "outputs": [
        {
          "name": "",
          "type": "uint256"
        }
      ],
      "payable": false,
      "type": "function"
    },
    {
      "constant": true,
      "inputs": [
        {
          "name": "value",
          "type": "uint256"
        }
      ],
      "name": "contains",
      "outputs": [
        {
          "name": "",
          "type": "bool"
        }
      ],
      "payable": false,
      "type": "function"
    },
    {
      "constant": false,
      "inputs": [
        {
          "name": "newOwner",
          "type": "address"
        }
      ],
      "name": "transferOwnership",
      "outputs": [],
      "payable": false,
      "type": "function"
    },
    {
      "constant": true,
      "inputs": [],
      "name": "lastAdd",
      "outputs": [
        {
          "name": "",
          "type": "bool"
        }
      ],
      "payable": false,
      "type": "function"
    },
    {
      "inputs": [],
      "payable": true,
      "type": "constructor"
    },
    {
      "payable": true,
      "type": "fallback"
    }
  ],
  "bytecode": "0x60606040525b5b60008054600160a060020a03191633600160a060020a03161790555b5b5b610a14806100336000396000f300606060405236156100d55763ffffffff60e060020a6000350416631003e2d281146100d957806319eb4a90146101035780631ab06ee51461016a5780633df4ddf41461019757806341c0e1b5146101bc57806347799da8146101d15780634cc82215146101f65780635dcfb4fa14610220578063866797b3146102485780638da5cb5b1461026f5780638fbcd7751461029e57806391ac7e65146102c3578063949d225d146102eb5780639507d39a14610310578063c34052e014610338578063f2fde38b14610362578063fedab70d14610383575b5b5b005b34156100e457600080fd5b6100ef6004356103aa565b604051901515815260200160405180910390f35b341561010e57600080fd5b610116610442565b60405160208082528190810183818151815260200191508051906020019060200280838360005b838110156101565780820151818401525b60200161013d565b505050509050019250505060405180910390f35b341561017557600080fd5b6100ef6004356024356104a0565b604051901515815260200160405180910390f35b34156101a257600080fd5b6101aa61052c565b60405190815260200160405180910390f35b34156101c757600080fd5b6100d56105a6565b005b34156101dc57600080fd5b6101aa6105b6565b60405190815260200160405180910390f35b341561020157600080fd5b6100ef600435610630565b604051901515815260200160405180910390f35b341561022b57600080fd5b6101aa6004356106ce565b60405190815260200160405180910390f35b341561025357600080fd5b6100ef610755565b604051901515815260200160405180910390f35b341561027a57600080fd5b610282610763565b604051600160a060020a03909116815260200160405180910390f35b34156102a957600080fd5b6101aa610772565b60405190815260200160405180910390f35b34156102ce57600080fd5b6101aa600435610778565b60405190815260200160405180910390f35b34156102f657600080fd5b6101aa6107fa565b60405190815260200160405180910390f35b341561031b57600080fd5b6101aa600435610874565b60405190815260200160405180910390f35b341561034357600080fd5b6100ef6004356108f6565b604051901515815260200160405180910390f35b341561036d57600080fd5b6100d5600160a060020a0360043516610978565b005b341561038e57600080fd5b6100ef6109cd565b604051901515815260200160405180910390f35b600073__UIntSetLib____________________________6348d8aa13600184846040516020015260405160e060020a63ffffffff85160281526004810192909252602482015260440160206040518083038186803b151561040a57600080fd5b6102c65a03f4151561041b57600080fd5b50505060405180516005805460ff1916911515919091179081905560ff169150505b919050565b61044a6109d6565b6001805460208082020160405190810160405280929190818152602001828054801561049557602002820191906000526020600020905b815481526020019060010190808311610481575b505050505090505b90565b600073__UIntSetLib____________________________63f9c4ccd860018585856040516020015260405160e060020a63ffffffff861602815260048101939093526024830191909152604482015260640160206040518083038186803b151561050957600080fd5b6102c65a03f4151561051a57600080fd5b50505060405180519150505b92915050565b600073__UIntSetLib____________________________63e1ef74056001836040516020015260405160e060020a63ffffffff8416028152600481019190915260240160206040518083038186803b151561058657600080fd5b6102c65a03f4151561059757600080fd5b50505060405180519150505b90565b600054600160a060020a0316ff5b565b600073__UIntSetLib____________________________63cce511446001836040516020015260405160e060020a63ffffffff8416028152600481019190915260240160206040518083038186803b151561058657600080fd5b6102c65a03f4151561059757600080fd5b50505060405180519150505b90565b600073__UIntSetLib____________________________636bebc35a600184846040516020015260405160e060020a63ffffffff85160281526004810192909252602482015260440160206040518083038186803b151561069057600080fd5b6102c65a03f415156106a157600080fd5b50505060405180516005805461ff0019166101009215158302179081905560ff919004169150505b919050565b600073__UIntSetLib____________________________63d5f94758600184846040516020015260405160e060020a63ffffffff85160281526004810192909252602482015260440160206040518083038186803b151561072e57600080fd5b6102c65a03f4151561073f57600080fd5b505050604051805160048190559150505b919050565b600554610100900460ff1681565b600054600160a060020a031681565b60045481565b600073__UIntSetLib____________________________6353b42b59600184846040516020015260405160e060020a63ffffffff85160281526004810192909252602482015260440160206040518083038186803b15156107d857600080fd5b6102c65a03f415156107e957600080fd5b50505060405180519150505b919050565b600073__UIntSetLib____________________________63a69be3d76001836040516020015260405160e060020a63ffffffff8416028152600481019190915260240160206040518083038186803b151561058657600080fd5b6102c65a03f4151561059757600080fd5b50505060405180519150505b90565b600073__UIntSetLib____________________________63c25ce2c1600184846040516020015260405160e060020a63ffffffff85160281526004810192909252602482015260440160206040518083038186803b15156107d857600080fd5b6102c65a03f415156107e957600080fd5b50505060405180519150505b919050565b600073__UIntSetLib____________________________637f562d88600184846040516020015260405160e060020a63ffffffff85160281526004810192909252602482015260440160206040518083038186803b15156107d857600080fd5b6102c65a03f415156107e957600080fd5b50505060405180519150505b919050565b60005433600160a060020a03908116911614156109c757600160a060020a038116156109c7576000805473ffffffffffffffffffffffffffffffffffffffff1916600160a060020a0383161790555b5b5b5b50565b60055460ff1681565b602060405190810160405260008152905600a165627a7a723058209075ce3933842e44ccc1459d95b7b24cf5e94793f8a3a93cc7606f057dc612870029",
  "source": "pragma solidity ^0.4.11;\n\nimport './UIntSetLib.sol';\nimport '../../zeppelin/lifecycle/Killable.sol';\n\ncontract UIntSetSpec is Killable {\n  using UIntSetLib for UIntSetLib.UIntSet;\n\n  UIntSetLib.UIntSet testSet;\n\n  uint public lastPop;\n  bool public lastAdd;\n  bool public lastRemove;\n\n  function () payable {}\n  function UIntSetSpec() payable {}\n\n  function get(uint index) public constant\n    returns (uint)\n  {\n    return testSet.get(index);\n  }\n\n  function getValues() public constant\n    returns (uint[])\n  {\n    return testSet.values;\n  }\n\n  function set(uint index, uint value) public\n    returns (bool)\n  {\n    return testSet.set(index, value);\n  }\n\n  function add(uint value) public\n    returns (bool)\n  {\n    lastAdd = testSet.add(value);\n    return lastAdd;\n  }\n\n  function remove(uint value) public\n    returns (bool)\n  {\n    lastRemove = testSet.remove(value);\n    return lastRemove;\n  }\n\n  function pop(uint index) public\n    returns (uint)\n  {\n    lastPop = testSet.pop(index);\n    return lastPop;\n  }\n\n  function first() public constant\n    returns (uint)\n  {\n    return testSet.first();\n  }\n\n  function last() public constant\n    returns (uint)\n  {\n    return testSet.last();\n  }\n\n  function indexOf(uint value) public constant\n    returns (uint)\n  {\n    return testSet.indexOf(value);\n  }\n\n  function contains(uint value) public constant\n    returns (bool)\n  {\n    return testSet.contains(value);\n  }\n\n  function size() public constant\n    returns (uint)\n  {\n    return testSet.size();\n  }\n}\n",
  "sourcePath": "/Users/orie/Code/dapp/contracts/TransmuteFramework/TransmuteFramework/SetLib/UIntSet/UIntSetSpec.sol",
  "schemaVersion": "1.0.0",
  "updatedAt": "2017-10-08T20:58:06.799Z"
}